{
  "_format": "hh-sol-artifact-1",
  "contractName": "VaultGovernor",
  "sourceName": "contracts/VaultGovernor.sol",
  "abi": [
    {
      "inputs": [
        {
          "internalType": "contract IVotes",
          "name": "_token",
          "type": "address"
        },
        {
          "internalType": "contract TimelockController",
          "name": "_timelock",
          "type": "address"
        }
      ],
      "stateMutability": "nonpayable",
      "type": "constructor"
    },
    {
      "inputs": [],
      "name": "CheckpointUnorderedInsertion",
      "type": "error"
    },
    {
      "inputs": [],
      "name": "FailedCall",
      "type": "error"
    },
    {
      "inputs": [
        {
          "internalType": "address",
          "name": "voter",
          "type": "address"
        }
      ],
      "name": "GovernorAlreadyCastVote",
      "type": "error"
    },
    {
      "inputs": [
        {
          "internalType": "uint256",
          "name": "proposalId",
          "type": "uint256"
        }
      ],
      "name": "GovernorAlreadyQueuedProposal",
      "type": "error"
    },
    {
      "inputs": [],
      "name": "GovernorDisabledDeposit",
      "type": "error"
    },
    {
      "inputs": [
        {
          "internalType": "address",
          "name": "proposer",
          "type": "address"
        },
        {
          "internalType": "uint256",
          "name": "votes",
          "type": "uint256"
        },
        {
          "internalType": "uint256",
          "name": "threshold",
          "type": "uint256"
        }
      ],
      "name": "GovernorInsufficientProposerVotes",
      "type": "error"
    },
    {
      "inputs": [
        {
          "internalType": "uint256",
          "name": "targets",
          "type": "uint256"
        },
        {
          "internalType": "uint256",
          "name": "calldatas",
          "type": "uint256"
        },
        {
          "internalType": "uint256",
          "name": "values",
          "type": "uint256"
        }
      ],
      "name": "GovernorInvalidProposalLength",
      "type": "error"
    },
    {
      "inputs": [
        {
          "internalType": "uint256",
          "name": "quorumNumerator",
          "type": "uint256"
        },
        {
          "internalType": "uint256",
          "name": "quorumDenominator",
          "type": "uint256"
        }
      ],
      "name": "GovernorInvalidQuorumFraction",
      "type": "error"
    },
    {
      "inputs": [
        {
          "internalType": "address",
          "name": "voter",
          "type": "address"
        }
      ],
      "name": "GovernorInvalidSignature",
      "type": "error"
    },
    {
      "inputs": [],
      "name": "GovernorInvalidVoteParams",
      "type": "error"
    },
    {
      "inputs": [],
      "name": "GovernorInvalidVoteType",
      "type": "error"
    },
    {
      "inputs": [
        {
          "internalType": "uint256",
          "name": "votingPeriod",
          "type": "uint256"
        }
      ],
      "name": "GovernorInvalidVotingPeriod",
      "type": "error"
    },
    {
      "inputs": [
        {
          "internalType": "uint256",
          "name": "proposalId",
          "type": "uint256"
        }
      ],
      "name": "GovernorNonexistentProposal",
      "type": "error"
    },
    {
      "inputs": [
        {
          "internalType": "uint256",
          "name": "proposalId",
          "type": "uint256"
        }
      ],
      "name": "GovernorNotQueuedProposal",
      "type": "error"
    },
    {
      "inputs": [
        {
          "internalType": "address",
          "name": "account",
          "type": "address"
        }
      ],
      "name": "GovernorOnlyExecutor",
      "type": "error"
    },
    {
      "inputs": [],
      "name": "GovernorQueueNotImplemented",
      "type": "error"
    },
    {
      "inputs": [
        {
          "internalType": "address",
          "name": "proposer",
          "type": "address"
        }
      ],
      "name": "GovernorRestrictedProposer",
      "type": "error"
    },
    {
      "inputs": [
        {
          "internalType": "uint256",
          "name": "proposalId",
          "type": "uint256"
        },
        {
          "internalType": "address",
          "name": "account",
          "type": "address"
        }
      ],
      "name": "GovernorUnableToCancel",
      "type": "error"
    },
    {
      "inputs": [
        {
          "internalType": "uint256",
          "name": "proposalId",
          "type": "uint256"
        },
        {
          "internalType": "enum IGovernor.ProposalState",
          "name": "current",
          "type": "uint8"
        },
        {
          "internalType": "bytes32",
          "name": "expectedStates",
          "type": "bytes32"
        }
      ],
      "name": "GovernorUnexpectedProposalState",
      "type": "error"
    },
    {
      "inputs": [
        {
          "internalType": "address",
          "name": "account",
          "type": "address"
        },
        {
          "internalType": "uint256",
          "name": "currentNonce",
          "type": "uint256"
        }
      ],
      "name": "InvalidAccountNonce",
      "type": "error"
    },
    {
      "inputs": [],
      "name": "InvalidShortString",
      "type": "error"
    },
    {
      "inputs": [
        {
          "internalType": "uint8",
          "name": "bits",
          "type": "uint8"
        },
        {
          "internalType": "uint256",
          "name": "value",
          "type": "uint256"
        }
      ],
      "name": "SafeCastOverflowedUintDowncast",
      "type": "error"
    },
    {
      "inputs": [
        {
          "internalType": "string",
          "name": "str",
          "type": "string"
        }
      ],
      "name": "StringTooLong",
      "type": "error"
    },
    {
      "anonymous": false,
      "inputs": [],
      "name": "EIP712DomainChanged",
      "type": "event"
    },
    {
      "anonymous": false,
      "inputs": [
        {
          "indexed": false,
          "internalType": "uint256",
          "name": "proposalId",
          "type": "uint256"
        }
      ],
      "name": "ProposalCanceled",
      "type": "event"
    },
    {
      "anonymous": false,
      "inputs": [
        {
          "indexed": false,
          "internalType": "uint256",
          "name": "proposalId",
          "type": "uint256"
        },
        {
          "indexed": false,
          "internalType": "address",
          "name": "proposer",
          "type": "address"
        },
        {
          "indexed": false,
          "internalType": "address[]",
          "name": "targets",
          "type": "address[]"
        },
        {
          "indexed": false,
          "internalType": "uint256[]",
          "name": "values",
          "type": "uint256[]"
        },
        {
          "indexed": false,
          "internalType": "string[]",
          "name": "signatures",
          "type": "string[]"
        },
        {
          "indexed": false,
          "internalType": "bytes[]",
          "name": "calldatas",
          "type": "bytes[]"
        },
        {
          "indexed": false,
          "internalType": "uint256",
          "name": "voteStart",
          "type": "uint256"
        },
        {
          "indexed": false,
          "internalType": "uint256",
          "name": "voteEnd",
          "type": "uint256"
        },
        {
          "indexed": false,
          "internalType": "string",
          "name": "description",
          "type": "string"
        }
      ],
      "name": "ProposalCreated",
      "type": "event"
    },
    {
      "anonymous": false,
      "inputs": [
        {
          "indexed": false,
          "internalType": "uint256",
          "name": "proposalId",
          "type": "uint256"
        }
      ],
      "name": "ProposalExecuted",
      "type": "event"
    },
    {
      "anonymous": false,
      "inputs": [
        {
          "indexed": false,
          "internalType": "uint256",
          "name": "proposalId",
          "type": "uint256"
        },
        {
          "indexed": false,
          "internalType": "uint256",
          "name": "etaSeconds",
          "type": "uint256"
        }
      ],
      "name": "ProposalQueued",
      "type": "event"
    },
    {
      "anonymous": false,
      "inputs": [
        {
          "indexed": false,
          "internalType": "uint256",
          "name": "oldProposalThreshold",
          "type": "uint256"
        },
        {
          "indexed": false,
          "internalType": "uint256",
          "name": "newProposalThreshold",
          "type": "uint256"
        }
      ],
      "name": "ProposalThresholdSet",
      "type": "event"
    },
    {
      "anonymous": false,
      "inputs": [
        {
          "indexed": false,
          "internalType": "uint256",
          "name": "oldQuorumNumerator",
          "type": "uint256"
        },
        {
          "indexed": false,
          "internalType": "uint256",
          "name": "newQuorumNumerator",
          "type": "uint256"
        }
      ],
      "name": "QuorumNumeratorUpdated",
      "type": "event"
    },
    {
      "anonymous": false,
      "inputs": [
        {
          "indexed": false,
          "internalType": "address",
          "name": "oldTimelock",
          "type": "address"
        },
        {
          "indexed": false,
          "internalType": "address",
          "name": "newTimelock",
          "type": "address"
        }
      ],
      "name": "TimelockChange",
      "type": "event"
    },
    {
      "anonymous": false,
      "inputs": [
        {
          "indexed": true,
          "internalType": "address",
          "name": "voter",
          "type": "address"
        },
        {
          "indexed": false,
          "internalType": "uint256",
          "name": "proposalId",
          "type": "uint256"
        },
        {
          "indexed": false,
          "internalType": "uint8",
          "name": "support",
          "type": "uint8"
        },
        {
          "indexed": false,
          "internalType": "uint256",
          "name": "weight",
          "type": "uint256"
        },
        {
          "indexed": false,
          "internalType": "string",
          "name": "reason",
          "type": "string"
        }
      ],
      "name": "VoteCast",
      "type": "event"
    },
    {
      "anonymous": false,
      "inputs": [
        {
          "indexed": true,
          "internalType": "address",
          "name": "voter",
          "type": "address"
        },
        {
          "indexed": false,
          "internalType": "uint256",
          "name": "proposalId",
          "type": "uint256"
        },
        {
          "indexed": false,
          "internalType": "uint8",
          "name": "support",
          "type": "uint8"
        },
        {
          "indexed": false,
          "internalType": "uint256",
          "name": "weight",
          "type": "uint256"
        },
        {
          "indexed": false,
          "internalType": "string",
          "name": "reason",
          "type": "string"
        },
        {
          "indexed": false,
          "internalType": "bytes",
          "name": "params",
          "type": "bytes"
        }
      ],
      "name": "VoteCastWithParams",
      "type": "event"
    },
    {
      "anonymous": false,
      "inputs": [
        {
          "indexed": false,
          "internalType": "uint256",
          "name": "oldVotingDelay",
          "type": "uint256"
        },
        {
          "indexed": false,
          "internalType": "uint256",
          "name": "newVotingDelay",
          "type": "uint256"
        }
      ],
      "name": "VotingDelaySet",
      "type": "event"
    },
    {
      "anonymous": false,
      "inputs": [
        {
          "indexed": false,
          "internalType": "uint256",
          "name": "oldVotingPeriod",
          "type": "uint256"
        },
        {
          "indexed": false,
          "internalType": "uint256",
          "name": "newVotingPeriod",
          "type": "uint256"
        }
      ],
      "name": "VotingPeriodSet",
      "type": "event"
    },
    {
      "inputs": [],
      "name": "BALLOT_TYPEHASH",
      "outputs": [
        {
          "internalType": "bytes32",
          "name": "",
          "type": "bytes32"
        }
      ],
      "stateMutability": "view",
      "type": "function"
    },
    {
      "inputs": [],
      "name": "CLOCK_MODE",
      "outputs": [
        {
          "internalType": "string",
          "name": "",
          "type": "string"
        }
      ],
      "stateMutability": "view",
      "type": "function"
    },
    {
      "inputs": [],
      "name": "COUNTING_MODE",
      "outputs": [
        {
          "internalType": "string",
          "name": "",
          "type": "string"
        }
      ],
      "stateMutability": "pure",
      "type": "function"
    },
    {
      "inputs": [],
      "name": "EXTENDED_BALLOT_TYPEHASH",
      "outputs": [
        {
          "internalType": "bytes32",
          "name": "",
          "type": "bytes32"
        }
      ],
      "stateMutability": "view",
      "type": "function"
    },
    {
      "inputs": [
        {
          "internalType": "address[]",
          "name": "targets",
          "type": "address[]"
        },
        {
          "internalType": "uint256[]",
          "name": "values",
          "type": "uint256[]"
        },
        {
          "internalType": "bytes[]",
          "name": "calldatas",
          "type": "bytes[]"
        },
        {
          "internalType": "bytes32",
          "name": "descriptionHash",
          "type": "bytes32"
        }
      ],
      "name": "cancel",
      "outputs": [
        {
          "internalType": "uint256",
          "name": "",
          "type": "uint256"
        }
      ],
      "stateMutability": "nonpayable",
      "type": "function"
    },
    {
      "inputs": [
        {
          "internalType": "uint256",
          "name": "proposalId",
          "type": "uint256"
        },
        {
          "internalType": "uint8",
          "name": "support",
          "type": "uint8"
        }
      ],
      "name": "castVote",
      "outputs": [
        {
          "internalType": "uint256",
          "name": "",
          "type": "uint256"
        }
      ],
      "stateMutability": "nonpayable",
      "type": "function"
    },
    {
      "inputs": [
        {
          "internalType": "uint256",
          "name": "proposalId",
          "type": "uint256"
        },
        {
          "internalType": "uint8",
          "name": "support",
          "type": "uint8"
        },
        {
          "internalType": "address",
          "name": "voter",
          "type": "address"
        },
        {
          "internalType": "bytes",
          "name": "signature",
          "type": "bytes"
        }
      ],
      "name": "castVoteBySig",
      "outputs": [
        {
          "internalType": "uint256",
          "name": "",
          "type": "uint256"
        }
      ],
      "stateMutability": "nonpayable",
      "type": "function"
    },
    {
      "inputs": [
        {
          "internalType": "uint256",
          "name": "proposalId",
          "type": "uint256"
        },
        {
          "internalType": "uint8",
          "name": "support",
          "type": "uint8"
        },
        {
          "internalType": "string",
          "name": "reason",
          "type": "string"
        }
      ],
      "name": "castVoteWithReason",
      "outputs": [
        {
          "internalType": "uint256",
          "name": "",
          "type": "uint256"
        }
      ],
      "stateMutability": "nonpayable",
      "type": "function"
    },
    {
      "inputs": [
        {
          "internalType": "uint256",
          "name": "proposalId",
          "type": "uint256"
        },
        {
          "internalType": "uint8",
          "name": "support",
          "type": "uint8"
        },
        {
          "internalType": "string",
          "name": "reason",
          "type": "string"
        },
        {
          "internalType": "bytes",
          "name": "params",
          "type": "bytes"
        }
      ],
      "name": "castVoteWithReasonAndParams",
      "outputs": [
        {
          "internalType": "uint256",
          "name": "",
          "type": "uint256"
        }
      ],
      "stateMutability": "nonpayable",
      "type": "function"
    },
    {
      "inputs": [
        {
          "internalType": "uint256",
          "name": "proposalId",
          "type": "uint256"
        },
        {
          "internalType": "uint8",
          "name": "support",
          "type": "uint8"
        },
        {
          "internalType": "address",
          "name": "voter",
          "type": "address"
        },
        {
          "internalType": "string",
          "name": "reason",
          "type": "string"
        },
        {
          "internalType": "bytes",
          "name": "params",
          "type": "bytes"
        },
        {
          "internalType": "bytes",
          "name": "signature",
          "type": "bytes"
        }
      ],
      "name": "castVoteWithReasonAndParamsBySig",
      "outputs": [
        {
          "internalType": "uint256",
          "name": "",
          "type": "uint256"
        }
      ],
      "stateMutability": "nonpayable",
      "type": "function"
    },
    {
      "inputs": [],
      "name": "clock",
      "outputs": [
        {
          "internalType": "uint48",
          "name": "",
          "type": "uint48"
        }
      ],
      "stateMutability": "view",
      "type": "function"
    },
    {
      "inputs": [],
      "name": "eip712Domain",
      "outputs": [
        {
          "internalType": "bytes1",
          "name": "fields",
          "type": "bytes1"
        },
        {
          "internalType": "string",
          "name": "name",
          "type": "string"
        },
        {
          "internalType": "string",
          "name": "version",
          "type": "string"
        },
        {
          "internalType": "uint256",
          "name": "chainId",
          "type": "uint256"
        },
        {
          "internalType": "address",
          "name": "verifyingContract",
          "type": "address"
        },
        {
          "internalType": "bytes32",
          "name": "salt",
          "type": "bytes32"
        },
        {
          "internalType": "uint256[]",
          "name": "extensions",
          "type": "uint256[]"
        }
      ],
      "stateMutability": "view",
      "type": "function"
    },
    {
      "inputs": [
        {
          "internalType": "address[]",
          "name": "targets",
          "type": "address[]"
        },
        {
          "internalType": "uint256[]",
          "name": "values",
          "type": "uint256[]"
        },
        {
          "internalType": "bytes[]",
          "name": "calldatas",
          "type": "bytes[]"
        },
        {
          "internalType": "bytes32",
          "name": "descriptionHash",
          "type": "bytes32"
        }
      ],
      "name": "execute",
      "outputs": [
        {
          "internalType": "uint256",
          "name": "",
          "type": "uint256"
        }
      ],
      "stateMutability": "payable",
      "type": "function"
    },
    {
      "inputs": [
        {
          "internalType": "address[]",
          "name": "targets",
          "type": "address[]"
        },
        {
          "internalType": "uint256[]",
          "name": "values",
          "type": "uint256[]"
        },
        {
          "internalType": "bytes[]",
          "name": "calldatas",
          "type": "bytes[]"
        },
        {
          "internalType": "bytes32",
          "name": "descriptionHash",
          "type": "bytes32"
        }
      ],
      "name": "getProposalId",
      "outputs": [
        {
          "internalType": "uint256",
          "name": "",
          "type": "uint256"
        }
      ],
      "stateMutability": "view",
      "type": "function"
    },
    {
      "inputs": [
        {
          "internalType": "address",
          "name": "account",
          "type": "address"
        },
        {
          "internalType": "uint256",
          "name": "timepoint",
          "type": "uint256"
        }
      ],
      "name": "getVotes",
      "outputs": [
        {
          "internalType": "uint256",
          "name": "",
          "type": "uint256"
        }
      ],
      "stateMutability": "view",
      "type": "function"
    },
    {
      "inputs": [
        {
          "internalType": "address",
          "name": "account",
          "type": "address"
        },
        {
          "internalType": "uint256",
          "name": "timepoint",
          "type": "uint256"
        },
        {
          "internalType": "bytes",
          "name": "params",
          "type": "bytes"
        }
      ],
      "name": "getVotesWithParams",
      "outputs": [
        {
          "internalType": "uint256",
          "name": "",
          "type": "uint256"
        }
      ],
      "stateMutability": "view",
      "type": "function"
    },
    {
      "inputs": [
        {
          "internalType": "uint256",
          "name": "proposalId",
          "type": "uint256"
        },
        {
          "internalType": "address",
          "name": "account",
          "type": "address"
        }
      ],
      "name": "hasVoted",
      "outputs": [
        {
          "internalType": "bool",
          "name": "",
          "type": "bool"
        }
      ],
      "stateMutability": "view",
      "type": "function"
    },
    {
      "inputs": [
        {
          "internalType": "address[]",
          "name": "targets",
          "type": "address[]"
        },
        {
          "internalType": "uint256[]",
          "name": "values",
          "type": "uint256[]"
        },
        {
          "internalType": "bytes[]",
          "name": "calldatas",
          "type": "bytes[]"
        },
        {
          "internalType": "bytes32",
          "name": "descriptionHash",
          "type": "bytes32"
        }
      ],
      "name": "hashProposal",
      "outputs": [
        {
          "internalType": "uint256",
          "name": "",
          "type": "uint256"
        }
      ],
      "stateMutability": "pure",
      "type": "function"
    },
    {
      "inputs": [],
      "name": "name",
      "outputs": [
        {
          "internalType": "string",
          "name": "",
          "type": "string"
        }
      ],
      "stateMutability": "view",
      "type": "function"
    },
    {
      "inputs": [
        {
          "internalType": "address",
          "name": "owner",
          "type": "address"
        }
      ],
      "name": "nonces",
      "outputs": [
        {
          "internalType": "uint256",
          "name": "",
          "type": "uint256"
        }
      ],
      "stateMutability": "view",
      "type": "function"
    },
    {
      "inputs": [
        {
          "internalType": "address",
          "name": "",
          "type": "address"
        },
        {
          "internalType": "address",
          "name": "",
          "type": "address"
        },
        {
          "internalType": "uint256[]",
          "name": "",
          "type": "uint256[]"
        },
        {
          "internalType": "uint256[]",
          "name": "",
          "type": "uint256[]"
        },
        {
          "internalType": "bytes",
          "name": "",
          "type": "bytes"
        }
      ],
      "name": "onERC1155BatchReceived",
      "outputs": [
        {
          "internalType": "bytes4",
          "name": "",
          "type": "bytes4"
        }
      ],
      "stateMutability": "nonpayable",
      "type": "function"
    },
    {
      "inputs": [
        {
          "internalType": "address",
          "name": "",
          "type": "address"
        },
        {
          "internalType": "address",
          "name": "",
          "type": "address"
        },
        {
          "internalType": "uint256",
          "name": "",
          "type": "uint256"
        },
        {
          "internalType": "uint256",
          "name": "",
          "type": "uint256"
        },
        {
          "internalType": "bytes",
          "name": "",
          "type": "bytes"
        }
      ],
      "name": "onERC1155Received",
      "outputs": [
        {
          "internalType": "bytes4",
          "name": "",
          "type": "bytes4"
        }
      ],
      "stateMutability": "nonpayable",
      "type": "function"
    },
    {
      "inputs": [
        {
          "internalType": "address",
          "name": "",
          "type": "address"
        },
        {
          "internalType": "address",
          "name": "",
          "type": "address"
        },
        {
          "internalType": "uint256",
          "name": "",
          "type": "uint256"
        },
        {
          "internalType": "bytes",
          "name": "",
          "type": "bytes"
        }
      ],
      "name": "onERC721Received",
      "outputs": [
        {
          "internalType": "bytes4",
          "name": "",
          "type": "bytes4"
        }
      ],
      "stateMutability": "nonpayable",
      "type": "function"
    },
    {
      "inputs": [
        {
          "internalType": "uint256",
          "name": "proposalId",
          "type": "uint256"
        }
      ],
      "name": "proposalDeadline",
      "outputs": [
        {
          "internalType": "uint256",
          "name": "",
          "type": "uint256"
        }
      ],
      "stateMutability": "view",
      "type": "function"
    },
    {
      "inputs": [
        {
          "internalType": "uint256",
          "name": "proposalId",
          "type": "uint256"
        }
      ],
      "name": "proposalEta",
      "outputs": [
        {
          "internalType": "uint256",
          "name": "",
          "type": "uint256"
        }
      ],
      "stateMutability": "view",
      "type": "function"
    },
    {
      "inputs": [
        {
          "internalType": "uint256",
          "name": "proposalId",
          "type": "uint256"
        }
      ],
      "name": "proposalNeedsQueuing",
      "outputs": [
        {
          "internalType": "bool",
          "name": "",
          "type": "bool"
        }
      ],
      "stateMutability": "view",
      "type": "function"
    },
    {
      "inputs": [
        {
          "internalType": "uint256",
          "name": "proposalId",
          "type": "uint256"
        }
      ],
      "name": "proposalProposer",
      "outputs": [
        {
          "internalType": "address",
          "name": "",
          "type": "address"
        }
      ],
      "stateMutability": "view",
      "type": "function"
    },
    {
      "inputs": [
        {
          "internalType": "uint256",
          "name": "proposalId",
          "type": "uint256"
        }
      ],
      "name": "proposalSnapshot",
      "outputs": [
        {
          "internalType": "uint256",
          "name": "",
          "type": "uint256"
        }
      ],
      "stateMutability": "view",
      "type": "function"
    },
    {
      "inputs": [],
      "name": "proposalThreshold",
      "outputs": [
        {
          "internalType": "uint256",
          "name": "",
          "type": "uint256"
        }
      ],
      "stateMutability": "view",
      "type": "function"
    },
    {
      "inputs": [
        {
          "internalType": "uint256",
          "name": "proposalId",
          "type": "uint256"
        }
      ],
      "name": "proposalVotes",
      "outputs": [
        {
          "internalType": "uint256",
          "name": "againstVotes",
          "type": "uint256"
        },
        {
          "internalType": "uint256",
          "name": "forVotes",
          "type": "uint256"
        },
        {
          "internalType": "uint256",
          "name": "abstainVotes",
          "type": "uint256"
        }
      ],
      "stateMutability": "view",
      "type": "function"
    },
    {
      "inputs": [
        {
          "internalType": "address[]",
          "name": "targets",
          "type": "address[]"
        },
        {
          "internalType": "uint256[]",
          "name": "values",
          "type": "uint256[]"
        },
        {
          "internalType": "bytes[]",
          "name": "calldatas",
          "type": "bytes[]"
        },
        {
          "internalType": "string",
          "name": "description",
          "type": "string"
        }
      ],
      "name": "propose",
      "outputs": [
        {
          "internalType": "uint256",
          "name": "",
          "type": "uint256"
        }
      ],
      "stateMutability": "nonpayable",
      "type": "function"
    },
    {
      "inputs": [
        {
          "internalType": "address[]",
          "name": "targets",
          "type": "address[]"
        },
        {
          "internalType": "uint256[]",
          "name": "values",
          "type": "uint256[]"
        },
        {
          "internalType": "bytes[]",
          "name": "calldatas",
          "type": "bytes[]"
        },
        {
          "internalType": "bytes32",
          "name": "descriptionHash",
          "type": "bytes32"
        }
      ],
      "name": "queue",
      "outputs": [
        {
          "internalType": "uint256",
          "name": "",
          "type": "uint256"
        }
      ],
      "stateMutability": "nonpayable",
      "type": "function"
    },
    {
      "inputs": [
        {
          "internalType": "uint256",
          "name": "blockNumber",
          "type": "uint256"
        }
      ],
      "name": "quorum",
      "outputs": [
        {
          "internalType": "uint256",
          "name": "",
          "type": "uint256"
        }
      ],
      "stateMutability": "view",
      "type": "function"
    },
    {
      "inputs": [],
      "name": "quorumDenominator",
      "outputs": [
        {
          "internalType": "uint256",
          "name": "",
          "type": "uint256"
        }
      ],
      "stateMutability": "view",
      "type": "function"
    },
    {
      "inputs": [
        {
          "internalType": "uint256",
          "name": "timepoint",
          "type": "uint256"
        }
      ],
      "name": "quorumNumerator",
      "outputs": [
        {
          "internalType": "uint256",
          "name": "",
          "type": "uint256"
        }
      ],
      "stateMutability": "view",
      "type": "function"
    },
    {
      "inputs": [],
      "name": "quorumNumerator",
      "outputs": [
        {
          "internalType": "uint256",
          "name": "",
          "type": "uint256"
        }
      ],
      "stateMutability": "view",
      "type": "function"
    },
    {
      "inputs": [
        {
          "internalType": "address",
          "name": "target",
          "type": "address"
        },
        {
          "internalType": "uint256",
          "name": "value",
          "type": "uint256"
        },
        {
          "internalType": "bytes",
          "name": "data",
          "type": "bytes"
        }
      ],
      "name": "relay",
      "outputs": [],
      "stateMutability": "payable",
      "type": "function"
    },
    {
      "inputs": [
        {
          "internalType": "uint256",
          "name": "newProposalThreshold",
          "type": "uint256"
        }
      ],
      "name": "setProposalThreshold",
      "outputs": [],
      "stateMutability": "nonpayable",
      "type": "function"
    },
    {
      "inputs": [
        {
          "internalType": "uint48",
          "name": "newVotingDelay",
          "type": "uint48"
        }
      ],
      "name": "setVotingDelay",
      "outputs": [],
      "stateMutability": "nonpayable",
      "type": "function"
    },
    {
      "inputs": [
        {
          "internalType": "uint32",
          "name": "newVotingPeriod",
          "type": "uint32"
        }
      ],
      "name": "setVotingPeriod",
      "outputs": [],
      "stateMutability": "nonpayable",
      "type": "function"
    },
    {
      "inputs": [
        {
          "internalType": "uint256",
          "name": "proposalId",
          "type": "uint256"
        }
      ],
      "name": "state",
      "outputs": [
        {
          "internalType": "enum IGovernor.ProposalState",
          "name": "",
          "type": "uint8"
        }
      ],
      "stateMutability": "view",
      "type": "function"
    },
    {
      "inputs": [
        {
          "internalType": "bytes4",
          "name": "interfaceId",
          "type": "bytes4"
        }
      ],
      "name": "supportsInterface",
      "outputs": [
        {
          "internalType": "bool",
          "name": "",
          "type": "bool"
        }
      ],
      "stateMutability": "view",
      "type": "function"
    },
    {
      "inputs": [],
      "name": "timelock",
      "outputs": [
        {
          "internalType": "address",
          "name": "",
          "type": "address"
        }
      ],
      "stateMutability": "view",
      "type": "function"
    },
    {
      "inputs": [],
      "name": "token",
      "outputs": [
        {
          "internalType": "contract IERC5805",
          "name": "",
          "type": "address"
        }
      ],
      "stateMutability": "view",
      "type": "function"
    },
    {
      "inputs": [
        {
          "internalType": "uint256",
          "name": "newQuorumNumerator",
          "type": "uint256"
        }
      ],
      "name": "updateQuorumNumerator",
      "outputs": [],
      "stateMutability": "nonpayable",
      "type": "function"
    },
    {
      "inputs": [
        {
          "internalType": "contract TimelockController",
          "name": "newTimelock",
          "type": "address"
        }
      ],
      "name": "updateTimelock",
      "outputs": [],
      "stateMutability": "nonpayable",
      "type": "function"
    },
    {
      "inputs": [],
      "name": "version",
      "outputs": [
        {
          "internalType": "string",
          "name": "",
          "type": "string"
        }
      ],
      "stateMutability": "view",
      "type": "function"
    },
    {
      "inputs": [],
      "name": "votingDelay",
      "outputs": [
        {
          "internalType": "uint256",
          "name": "",
          "type": "uint256"
        }
      ],
      "stateMutability": "view",
      "type": "function"
    },
    {
      "inputs": [],
      "name": "votingPeriod",
      "outputs": [
        {
          "internalType": "uint256",
          "name": "",
          "type": "uint256"
        }
      ],
      "stateMutability": "view",
      "type": "function"
    },
    {
      "stateMutability": "payable",
      "type": "receive"
    }
  ],
  "bytecode": "0x610180604052348015610010575f80fd5b50604051614cce380380614cce83398101604081905261002f9161071f565b80600483600161c4e05f6040518060400160405280600d81526020016c2b30bab63a23b7bb32b93737b960991b8152508061006e61017160201b60201c565b610078825f61018c565b6101205261008781600161018c565b61014052815160208084019190912060e052815190820120610100524660a05261011360e05161010051604080517f8b73c3c69bb8fe3d512ecc4cf759cc79239f7b179b0ffacaa9a75d522b39400f60208201529081019290925260608201524660808201523060a08201525f9060c00160405160208183030381529060405280519060200120905090565b60805250503060c052600361012882826107ef565b506101349050836101be565b61013d82610224565b610146816102c8565b5050506001600160a01b03166101605261015f81610309565b506101698161039e565b505050610945565b6040805180820190915260018152603160f81b602082015290565b5f6020835110156101a7576101a083610407565b90506101b8565b816101b284826107ef565b5060ff90505b92915050565b6008546040805165ffffffffffff928316815291831660208301527fc565b045403dc03c2eea82b81a0465edad9e2e7fc4d97e11421c209da93d7a93910160405180910390a16008805465ffffffffffff191665ffffffffffff92909216919091179055565b8063ffffffff165f036102515760405163f1cfbf0560e01b81525f60048201526024015b60405180910390fd5b6008546040805163ffffffff66010000000000009093048316815291831660208301527f7e3f7f0708a84de9203036abaa450dccc85ad5ff52f78c170f3edb55cf5e8828910160405180910390a16008805463ffffffff90921666010000000000000263ffffffff60301b19909216919091179055565b60075460408051918252602082018390527fccb45da8d5717e6c4544694297c4ba5cf151d455c9bb0ed4fc7a38411bc05461910160405180910390a1600755565b6064808211156103365760405163243e544560e01b81526004810183905260248101829052604401610248565b5f61033f610444565b905061035e61034c61045d565b610355856104d7565b600a919061050e565b505060408051828152602081018590527f0553476bf02ef2726e8ce5ced78d63e26e602e4a2257b1f559418e24b4633997910160405180910390a1505050565b600b54604080516001600160a01b03928316815291831660208301527f08f74ea46ef7894f65eabfb5e6e695de773a000b47c529ab559178069b226401910160405180910390a1600b80546001600160a01b0319166001600160a01b0392909216919091179055565b5f80829050601f81511115610431578260405163305a27a960e01b815260040161024891906108a9565b805161043c826108de565b179392505050565b5f61044f600a610528565b6001600160d01b0316905090565b5f6104686101605190565b6001600160a01b03166391ddadf46040518163ffffffff1660e01b8152600401602060405180830381865afa9250505080156104c1575060408051601f3d908101601f191682019092526104be91810190610901565b60015b6104d2576104cd610570565b905090565b919050565b5f6001600160d01b0382111561050a576040516306dfcc6560e41b815260d0600482015260248101839052604401610248565b5090565b5f8061051b85858561057a565b915091505b935093915050565b80545f9080156105675761054e83610541600184610926565b5f91825260209091200190565b54660100000000000090046001600160d01b0316610569565b5f5b9392505050565b5f6104cd436106d6565b82545f9081908015610679575f61059687610541600185610926565b805490915065ffffffffffff80821691660100000000000090046001600160d01b03169088168211156105dc57604051632520601d60e01b815260040160405180910390fd5b8765ffffffffffff168265ffffffffffff160361061857825465ffffffffffff1666010000000000006001600160d01b0389160217835561066b565b6040805180820190915265ffffffffffff808a1682526001600160d01b03808a1660208085019182528d54600181018f555f8f815291909120945191519092166601000000000000029216919091179101555b945085935061052092505050565b50506040805180820190915265ffffffffffff80851682526001600160d01b0380851660208085019182528854600181018a555f8a8152918220955192519093166601000000000000029190931617920191909155905081610520565b5f65ffffffffffff82111561050a576040516306dfcc6560e41b81526030600482015260248101839052604401610248565b6001600160a01b038116811461071c575f80fd5b50565b5f8060408385031215610730575f80fd5b825161073b81610708565b602084015190925061074c81610708565b809150509250929050565b634e487b7160e01b5f52604160045260245ffd5b600181811c9082168061077f57607f821691505b60208210810361079d57634e487b7160e01b5f52602260045260245ffd5b50919050565b601f8211156107ea57805f5260205f20601f840160051c810160208510156107c85750805b601f840160051c820191505b818110156107e7575f81556001016107d4565b50505b505050565b81516001600160401b0381111561080857610808610757565b61081c81610816845461076b565b846107a3565b6020601f82116001811461084e575f83156108375750848201515b5f19600385901b1c1916600184901b1784556107e7565b5f84815260208120601f198516915b8281101561087d578785015182556020948501946001909201910161085d565b508482101561089a57868401515f19600387901b60f8161c191681555b50505050600190811b01905550565b602081525f82518060208401528060208501604085015e5f604082850101526040601f19601f83011684010191505092915050565b8051602080830151919081101561079d575f1960209190910360031b1b16919050565b5f60208284031215610911575f80fd5b815165ffffffffffff81168114610569575f80fd5b818103818111156101b857634e487b7160e01b5f52601160045260245ffd5b60805160a05160c05160e051610100516101205161014051610160516143126109bc5f395f81816109c101528181610e29015281816111f601528181611de8015261206301525f611d2c01525f611d0001525f612e2b01525f612e0301525f612d5e01525f612d8801525f612db201526143125ff3fe6080604052600436106102a8575f3560e01c80637ecebe001161016f578063bc197c81116100d8578063deaaa7cc11610092578063ece40cc11161006d578063ece40cc114610956578063f23a6e6114610975578063f8ce560a14610994578063fc0c546a146109b3575f80fd5b8063deaaa7cc146108e5578063e540d01d14610918578063eb9019d414610937575f80fd5b8063bc197c8114610813578063c01f9e3714610832578063c28bc2fa14610851578063c59057e414610864578063d33219b414610883578063dd4e2ba5146108a0575f80fd5b8063a7713a7011610129578063a7713a7014610758578063a890c9101461076c578063a8f8a6681461078b578063a9a95294146107aa578063ab58fb8e146107c9578063b58131b0146107ff575f80fd5b80637ecebe001461068157806384b0196e146106b55780638ff262e3146106dc57806391ddadf4146106fb57806397c3d334146107265780639a802a6d14610739575f80fd5b806343859632116102115780635b8d0e0d116101cb5780635b8d0e0d146105c75780635f398a14146105e657806360c4247f1461060557806379051887146106245780637b3c71d3146106435780637d5e81e214610662575f80fd5b806343859632146104ca578063452115d6146105125780634bf5d7e914610531578063544ffc9c1461054557806354fd4d501461057f57806356781388146105a8575f80fd5b8063160cbed711610262578063160cbed7146104065780632656227d146104255780632d63f693146104385780632fe3e261146104575780633932abb11461048a5780633e4f49e61461049e575f80fd5b806301ffc9a7146102e357806302a251a31461031757806306f3f9e61461034257806306fdde0314610361578063143489d014610382578063150b7a02146103ce575f80fd5b366102df57306102b66109e5565b6001600160a01b0316146102dd57604051637485328f60e11b815260040160405180910390fd5b005b5f80fd5b3480156102ee575f80fd5b506103026102fd366004613344565b6109fd565b60405190151581526020015b60405180910390f35b348015610322575f80fd5b50600854600160301b900463ffffffff165b60405190815260200161030e565b34801561034d575f80fd5b506102dd61035c36600461336b565b610a69565b34801561036c575f80fd5b50610375610a7d565b60405161030e91906133b0565b34801561038d575f80fd5b506103b661039c36600461336b565b5f908152600460205260409020546001600160a01b031690565b6040516001600160a01b03909116815260200161030e565b3480156103d9575f80fd5b506103ed6103e8366004613499565b610b0d565b6040516001600160e01b0319909116815260200161030e565b348015610411575f80fd5b5061033461042036600461365f565b610b4f565b61033461043336600461365f565b610c1b565b348015610443575f80fd5b5061033461045236600461336b565b610d83565b348015610462575f80fd5b506103347f3e83946653575f9a39005e1545185629e92736b7528ab20ca3816f315424a81181565b348015610495575f80fd5b50610334610da3565b3480156104a9575f80fd5b506104bd6104b836600461336b565b610db5565b60405161030e9190613726565b3480156104d5575f80fd5b506103026104e4366004613734565b5f8281526009602090815260408083206001600160a01b038516845260030190915290205460ff1692915050565b34801561051d575f80fd5b5061033461052c36600461365f565b610dbf565b34801561053c575f80fd5b50610375610e25565b348015610550575f80fd5b5061056461055f36600461336b565b610ee5565b6040805193845260208401929092529082015260600161030e565b34801561058a575f80fd5b506040805180820190915260018152603160f81b6020820152610375565b3480156105b3575f80fd5b506103346105c2366004613772565b610f0a565b3480156105d2575f80fd5b506103346105e13660046137e0565b610f31565b3480156105f1575f80fd5b5061033461060036600461389c565b610fee565b348015610610575f80fd5b5061033461061f36600461336b565b611036565b34801561062f575f80fd5b506102dd61063e366004613930565b611042565b34801561064e575f80fd5b5061033461065d36600461394b565b611053565b34801561066d575f80fd5b5061033461067c3660046139a0565b6110a3565b34801561068c575f80fd5b5061033461069b366004613a5c565b6001600160a01b03165f9081526002602052604090205490565b3480156106c0575f80fd5b506106c9611159565b60405161030e9796959493929190613ab1565b3480156106e7575f80fd5b506103346106f6366004613b20565b61119b565b348015610706575f80fd5b5061070f6111f3565b60405165ffffffffffff909116815260200161030e565b348015610731575f80fd5b506064610334565b348015610744575f80fd5b50610334610753366004613b6d565b61127a565b348015610763575f80fd5b50610334611290565b348015610777575f80fd5b506102dd610786366004613a5c565b6112a9565b348015610796575f80fd5b506103346107a536600461365f565b6112ba565b3480156107b5575f80fd5b506103026107c436600461336b565b6112c7565b3480156107d4575f80fd5b506103346107e336600461336b565b5f9081526004602052604090206001015465ffffffffffff1690565b34801561080a575f80fd5b506103346112cf565b34801561081e575f80fd5b506103ed61082d366004613bc1565b6112d9565b34801561083d575f80fd5b5061033461084c36600461336b565b61131c565b6102dd61085f366004613c58565b61135e565b34801561086f575f80fd5b5061033461087e36600461365f565b6113da565b34801561088e575f80fd5b50600b546001600160a01b03166103b6565b3480156108ab575f80fd5b506040805180820190915260208082527f737570706f72743d627261766f2671756f72756d3d666f722c6162737461696e90820152610375565b3480156108f0575f80fd5b506103347ff2aad550cf55f045cb27e9c559f9889fdfb6e6cdaa032301d6ea397784ae51d781565b348015610923575f80fd5b506102dd610932366004613c97565b611413565b348015610942575f80fd5b50610334610951366004613cba565b611424565b348015610961575f80fd5b506102dd61097036600461336b565b611443565b348015610980575f80fd5b506103ed61098f366004613ce4565b611454565b34801561099f575f80fd5b506103346109ae36600461336b565b611497565b3480156109be575f80fd5b507f00000000000000000000000000000000000000000000000000000000000000006103b6565b5f6109f8600b546001600160a01b031690565b905090565b5f6001600160e01b031982166366defe7760e11b1480610a2d57506001600160e01b031982166332a2ad4360e11b145b80610a4857506001600160e01b03198216630271189760e51b145b80610a6357506301ffc9a760e01b6001600160e01b03198316145b92915050565b610a716114a1565b610a7a8161151a565b50565b606060038054610a8c90613d3b565b80601f0160208091040260200160405190810160405280929190818152602001828054610ab890613d3b565b8015610b035780601f10610ada57610100808354040283529160200191610b03565b820191905f5260205f20905b815481529060010190602001808311610ae657829003601f168201915b5050505050905090565b5f30610b176109e5565b6001600160a01b031614610b3e57604051637485328f60e11b815260040160405180910390fd5b50630a85bd0160e11b949350505050565b5f80610b5d868686866112ba565b9050610b7281610b6d60046115af565b6115d1565b505f610b81828888888861160e565b905065ffffffffffff811615610bf8575f82815260046020908152604091829020600101805465ffffffffffff191665ffffffffffff85169081179091558251858152918201527f9a2e42fd6722813d69113e7d0079d3d940171428df7373df9c7f7617cfda2892910160405180910390a1610c11565b604051634844252360e11b815260040160405180910390fd5b5095945050505050565b5f80610c29868686866112ba565b9050610c4981610c3960056115af565b610c4360046115af565b176115d1565b505f818152600460205260409020805460ff60f01b1916600160f01b17905530610c716109e5565b6001600160a01b031614610cfa575f5b8651811015610cf857306001600160a01b0316878281518110610ca657610ca6613d73565b60200260200101516001600160a01b031603610cf057610cf0858281518110610cd157610cd1613d73565b602002602001015180519060200120600561161c90919063ffffffff16565b600101610c81565b505b610d07818787878761163d565b30610d106109e5565b6001600160a01b031614158015610d3c57506005546001600160801b03808216600160801b9092041614155b15610d46575f6005555b6040518181527f712ae1383f79ac853f8d882153778e0260ef8f03b504e2866e0593e04d2b291f906020015b60405180910390a195945050505050565b5f90815260046020526040902054600160a01b900465ffffffffffff1690565b5f6109f860085465ffffffffffff1690565b5f610a6382611651565b5f80610dcd868686866112ba565b905033610dda828261178a565b610e0e57604051638fe5d8a960e01b8152600481018390526001600160a01b03821660248201526044015b60405180910390fd5b610e1a878787876117cf565b979650505050505050565b60607f00000000000000000000000000000000000000000000000000000000000000006001600160a01b0316634bf5d7e96040518163ffffffff1660e01b81526004015f60405180830381865afa925050508015610ea457506040513d5f823e601f3d908101601f19168201604052610ea19190810190613d87565b60015b610ee0575060408051808201909152601d81527f6d6f64653d626c6f636b6e756d6265722666726f6d3d64656661756c74000000602082015290565b919050565b5f818152600960205260409020805460018201546002909201549091905b9193909250565b5f80339050610f2984828560405180602001604052805f8152506117dc565b949350505050565b5f610f7788888888888080601f0160208091040260200160405190810160405280939291908181526020018383808284375f920191909152508a92508991506117fd9050565b610f9f576040516394ab6c0760e01b81526001600160a01b0387166004820152602401610e05565b610fe288878988888080601f0160208091040260200160405190810160405280939291908181526020018383808284375f920191909152508a92506118ca915050565b98975050505050505050565b5f80339050610e1a87828888888080601f0160208091040260200160405190810160405280939291908181526020018383808284375f920191909152508a92506118ca915050565b5f610a63600a836119a8565b61104a6114a1565b610a7a816119f5565b5f8033905061109986828787878080601f0160208091040260200160405190810160405280939291908181526020018383808284375f920191909152506117dc92505050565b9695505050505050565b5f336110af8184611a5b565b6110d75760405163d9b3955760e01b81526001600160a01b0382166004820152602401610e05565b5f6110e06112cf565b9050801561114c575f61110e8360016110f76111f3565b6111019190613e0f565b65ffffffffffff16611424565b90508181101561114a57604051636121770b60e11b81526001600160a01b03841660048201526024810182905260448101839052606401610e05565b505b610e1a8787878786611adf565b5f6060805f805f606061116a611cf9565b611172611d25565b604080515f80825260208201909252600f60f81b9b939a50919850469750309650945092509050565b5f6111a885858585611d52565b6111d0576040516394ab6c0760e01b81526001600160a01b0384166004820152602401610e05565b6111ea85848660405180602001604052805f8152506117dc565b95945050505050565b5f7f00000000000000000000000000000000000000000000000000000000000000006001600160a01b03166391ddadf46040518163ffffffff1660e01b8152600401602060405180830381865afa92505050801561126e575060408051601f3d908101601f1916820190925261126b91810190613e2d565b60015b610ee0576109f8611ddb565b5f611286848484611de5565b90505b9392505050565b5f61129b600a611e78565b6001600160d01b0316905090565b6112b16114a1565b610a7a81611ebc565b5f6111ea858585856113da565b5f6001610a63565b5f6109f860075490565b5f306112e36109e5565b6001600160a01b03161461130a57604051637485328f60e11b815260040160405180910390fd5b5063bc197c8160e01b95945050505050565b5f8181526004602052604081205461135090600160d01b810463ffffffff1690600160a01b900465ffffffffffff16613e48565b65ffffffffffff1692915050565b6113666114a1565b5f80856001600160a01b0316858585604051611383929190613e66565b5f6040518083038185875af1925050503d805f81146113bd576040519150601f19603f3d011682016040523d82523d5f602084013e6113c2565b606091505b50915091506113d18282611f25565b50505050505050565b5f848484846040516020016113f29493929190613f08565b60408051601f19818403018152919052805160209091012095945050505050565b61141b6114a1565b610a7a81611f62565b5f611289838361143e60408051602081019091525f815290565b611de5565b61144b6114a1565b610a7a81611ffe565b5f3061145e6109e5565b6001600160a01b03161461148557604051637485328f60e11b815260040160405180910390fd5b5063f23a6e6160e01b95945050505050565b5f610a638261203f565b336114aa6109e5565b6001600160a01b0316146114d3576040516347096e4760e01b8152336004820152602401610e05565b306114dc6109e5565b6001600160a01b031614611518575f80366040516114fb929190613e66565b604051809103902090505b8061151160056120dc565b0361150657505b565b6064808211156115475760405163243e544560e01b81526004810183905260248101829052604401610e05565b5f611550611290565b905061156f61155d6111f3565b611566856120fb565b600a9190612132565b505060408051828152602081018590527f0553476bf02ef2726e8ce5ced78d63e26e602e4a2257b1f559418e24b4633997910160405180910390a1505050565b5f8160078111156115c2576115c26136f2565b600160ff919091161b92915050565b5f806115dc84610db5565b90505f836115e9836115af565b1603611289578381846040516331b75e4d60e01b8152600401610e0593929190613f52565b5f611099868686868661214c565b5f61162783836122dd565b905080611638576116386041612342565b505050565b61164a8585858585612353565b5050505050565b5f8061165c836123e3565b90506005816007811115611672576116726136f2565b1461167d5792915050565b5f838152600c60205260409081902054600b549151632c258a9f60e11b81526004810182905290916001600160a01b03169063584b153e90602401602060405180830381865afa1580156116d3573d5f803e3d5ffd5b505050506040513d601f19601f820116820180604052508101906116f79190613f74565b15611706575060059392505050565b600b54604051632ab0f52960e01b8152600481018390526001600160a01b0390911690632ab0f52990602401602060405180830381865afa15801561174d573d5f803e3d5ffd5b505050506040513d601f19601f820116820180604052508101906117719190613f74565b15611780575060079392505050565b5060029392505050565b5f8061179584610db5565b60078111156117a6576117a66136f2565b1480156112895750505f91825260046020526040909120546001600160a01b0391821691161490565b5f6111ea85858585612514565b5f6111ea858585856117f860408051602081019091525f815290565b6118ca565b5f610e1a856118c47f3e83946653575f9a39005e1545185629e92736b7528ab20ca3816f315424a8118a8a8a61184f8c6001600160a01b03165f90815260026020526040902080546001810190915590565b8b516020808e01919091208c518d8301206040516118a998979695949301968752602087019590955260ff9390931660408601526001600160a01b03919091166060850152608084015260a083015260c082015260e00190565b604051602081830303815290604052805190602001206125ab565b846125d7565b5f6118d986610b6d60016115af565b505f6118ee866118e889610d83565b85611de5565b90505f6118fe8888888588612647565b905083515f0361195457866001600160a01b03167fb8e138887d0aa13bab447e82de9d5c1777041ecd21ca36ba824ff1e6c07ddda4898884896040516119479493929190613f93565b60405180910390a2610e1a565b866001600160a01b03167fe2babfbac5889a709b63bb7f598b324e08bc5a4fb9ec647fb3cbc9ec07eb87128988848989604051611995959493929190613fba565b60405180910390a2979650505050505050565b5f805f6119b485612743565b9250925050838265ffffffffffff1611156119e1576119dc6119d58561279b565b86906127cd565b6119e3565b805b6001600160d01b031695945050505050565b6008546040805165ffffffffffff928316815291831660208301527fc565b045403dc03c2eea82b81a0465edad9e2e7fc4d97e11421c209da93d7a93910160405180910390a16008805465ffffffffffff191665ffffffffffff92909216919091179055565b80515f906034811015611a72576001915050610a63565b60131981840101516001600160b01b03198116692370726f706f7365723d60b01b14611aa357600192505050610a63565b5f80611ab386602a86038661286f565b91509150811580610e1a5750866001600160a01b0316816001600160a01b031614979650505050505050565b5f611af386868686805190602001206112ba565b905084518651141580611b0857508351865114155b80611b1257508551155b15611b4757855184518651604051630447b05d60e41b8152600481019390935260248301919091526044820152606401610e05565b5f81815260046020526040902054600160a01b900465ffffffffffff1615611b905780611b7382610db5565b6040516331b75e4d60e01b8152610e059291905f90600401613f52565b5f611b99610da3565b611ba16111f3565b65ffffffffffff16611bb39190613ff3565b90505f611bcd60085463ffffffff600160301b9091041690565b5f84815260046020526040902080546001600160a01b0319166001600160a01b038716178155909150611bff8361279b565b815465ffffffffffff91909116600160a01b0265ffffffffffff60a01b19909116178155611c2c82612918565b815463ffffffff91909116600160d01b0263ffffffff60d01b1990911617815588517f7d84a6263ae0d98d3329bd7b46bb4e8d6f98cd35a7adb45c274c8b7fd5ebd5e090859087908c908c906001600160401b03811115611c8f57611c8f6133d6565b604051908082528060200260200182016040528015611cc257816020015b6060815260200190600190039081611cad5790505b508c89611ccf8a82613ff3565b8e604051611ce599989796959493929190614006565b60405180910390a150505095945050505050565b60606109f87f00000000000000000000000000000000000000000000000000000000000000005f612948565b60606109f87f00000000000000000000000000000000000000000000000000000000000000006001612948565b5f6111ea836118c47ff2aad550cf55f045cb27e9c559f9889fdfb6e6cdaa032301d6ea397784ae51d7888888611da48a6001600160a01b03165f90815260026020526040902080546001810190915590565b60408051602081019690965285019390935260ff90911660608401526001600160a01b0316608083015260a082015260c0016118a9565b5f6109f84361279b565b5f7f0000000000000000000000000000000000000000000000000000000000000000604051630748d63560e31b81526001600160a01b038681166004830152602482018690529190911690633a46b1a890604401602060405180830381865afa158015611e54573d5f803e3d5ffd5b505050506040513d601f19601f8201168201806040525081019061128691906140e1565b80545f908015611eb457611e9e83611e916001846140f8565b5f91825260209091200190565b54600160301b90046001600160d01b0316611289565b5f9392505050565b600b54604080516001600160a01b03928316815291831660208301527f08f74ea46ef7894f65eabfb5e6e695de773a000b47c529ab559178069b226401910160405180910390a1600b80546001600160a01b0319166001600160a01b0392909216919091179055565b60608215611f34575080610a63565b815115611f4957611f44826129f1565b610a63565b60405163d6bda27560e01b815260040160405180910390fd5b8063ffffffff165f03611f8a5760405163f1cfbf0560e01b81525f6004820152602401610e05565b6008546040805163ffffffff600160301b9093048316815291831660208301527f7e3f7f0708a84de9203036abaa450dccc85ad5ff52f78c170f3edb55cf5e8828910160405180910390a16008805463ffffffff909216600160301b0269ffffffff00000000000019909216919091179055565b60075460408051918252602082018390527fccb45da8d5717e6c4544694297c4ba5cf151d455c9bb0ed4fc7a38411bc05461910160405180910390a1600755565b604051632394e7a360e21b8152600481018290525f90610a63906001600160a01b037f00000000000000000000000000000000000000000000000000000000000000001690638e539e8c90602401602060405180830381865afa1580156120a8573d5f803e3d5ffd5b505050506040513d601f19601f820116820180604052508101906120cc91906140e1565b6120d584611036565b60646129f9565b5f805f6120e884612aa9565b9150915081611289576112896031612342565b5f6001600160d01b0382111561212e576040516306dfcc6560e41b815260d0600482015260248101839052604401610e05565b5090565b5f8061213f858585612b1d565b915091505b935093915050565b5f80600b5f9054906101000a90046001600160a01b03166001600160a01b031663f27a0c926040518163ffffffff1660e01b8152600401602060405180830381865afa15801561219e573d5f803e3d5ffd5b505050506040513d601f19601f820116820180604052508101906121c291906140e1565b90505f3060601b6bffffffffffffffffffffffff19168418600b5460405163b1c5f42760e01b81529192506001600160a01b03169063b1c5f42790612213908a908a908a905f90889060040161410b565b602060405180830381865afa15801561222e573d5f803e3d5ffd5b505050506040513d601f19601f8201168201806040525081019061225291906140e1565b5f898152600c602052604080822092909255600b5491516308f2a0bb60e41b81526001600160a01b0390921691638f2a0bb09161229c918b918b918b919088908a90600401614158565b5f604051808303815f87803b1580156122b3575f80fd5b505af11580156122c5573d5f803e3d5ffd5b50505050610fe282426122d89190613ff3565b61279b565b81545f906001600160801b03600160801b82048116918116600183019091160361230a575f915050610a63565b6001600160801b038181165f908152600186810160205260409091209490945584549184018116600160801b02911617909255919050565b634e487b715f52806020526024601cfd5b600b546001600160a01b031663e38335e5348686865f3060601b6bffffffffffffffffffffffff191688186040518763ffffffff1660e01b815260040161239e95949392919061410b565b5f604051808303818588803b1580156123b5575f80fd5b505af11580156123c7573d5f803e3d5ffd5b5050505f9687525050600c602052505060408320929092555050565b5f818152600460205260408120805460ff600160f01b8204811691600160f81b900416811561241757506007949350505050565b801561242857506002949350505050565b5f61243286610d83565b9050805f0361245757604051636ad0607560e01b815260048101879052602401610e05565b5f6124606111f3565b65ffffffffffff16905080821061247d57505f9695505050505050565b5f6124878861131c565b905081811061249e57506001979650505050505050565b6124a788612c6d565b15806124c657505f888152600960205260409020805460019091015411155b156124d957506003979650505050505050565b5f8881526004602052604090206001015465ffffffffffff165f0361250657506004979650505050505050565b506005979650505050505050565b5f8061252286868686612ca3565b5f818152600c60205260409020549091508015610c1157600b5460405163c4d252f560e01b8152600481018390526001600160a01b039091169063c4d252f5906024015f604051808303815f87803b15801561257c575f80fd5b505af115801561258e573d5f803e3d5ffd5b5050505f838152600c602052604081205550509050949350505050565b5f610a636125b7612d52565b8360405161190160f01b8152600281019290925260228201526042902090565b5f836001600160a01b03163b5f03612635575f806125f58585612e7b565b5090925090505f81600381111561260e5761260e6136f2565b14801561262c5750856001600160a01b0316826001600160a01b0316145b92505050611289565b612640848484612ec4565b9050611289565b5f8581526009602090815260408083206001600160a01b03881684526003810190925282205460ff1615612699576040516371c6af4960e01b81526001600160a01b0387166004820152602401610e05565b6001600160a01b0386165f9081526003820160205260409020805460ff1916600117905560ff85166126e25783815f015f8282546126d79190613ff3565b909155506127389050565b5f1960ff8616016127005783816001015f8282546126d79190613ff3565b60011960ff86160161271f5783816002015f8282546126d79190613ff3565b6040516303599be160e11b815260040160405180910390fd5b509195945050505050565b80545f9081908190808203612761575f805f93509350935050610f03565b5f61277186611e916001856140f8565b546001955065ffffffffffff81169450600160301b90046001600160d01b03169250610f03915050565b5f65ffffffffffff82111561212e576040516306dfcc6560e41b81526030600482015260248101839052604401610e05565b81545f9081816005811115612829575f6127e684612f15565b6127f090856140f8565b5f8881526020902090915081015465ffffffffffff908116908716101561281957809150612827565b612824816001613ff3565b92505b505b5f6128368787858561306d565b905080156128635761284d87611e916001846140f8565b54600160301b90046001600160d01b0316610e1a565b505f9695505050505050565b5f80845183118061287f57508284115b1561288e57505f905080612144565b5f61289a856001613ff3565b841180156128c2575061060f60f31b6128b68787016020015190565b6001600160f01b031916145b90505f6128d282151560026141af565b6128dd906028613ff3565b9050806128ea87876140f8565b0361290b575f806128fc8989896130c3565b90965094506121449350505050565b5f80935093505050612144565b5f63ffffffff82111561212e576040516306dfcc6560e41b81526020600482015260248101839052604401610e05565b606060ff83146129625761295b83613184565b9050610a63565b81805461296e90613d3b565b80601f016020809104026020016040519081016040528092919081815260200182805461299a90613d3b565b80156129e55780601f106129bc576101008083540402835291602001916129e5565b820191905f5260205f20905b8154815290600101906020018083116129c857829003601f168201915b50505050509050610a63565b805160208201fd5b5f805f612a0686866131c1565b91509150815f03612a2a57838181612a2057612a206141c6565b0492505050611289565b818411612a4157612a416003851502601118612342565b5f848688095f868103871696879004966002600389028118808a02820302808a02820302808a02820302808a02820302808a02820302808a02909103029181900381900460010185841190960395909502919093039390930492909217029150509392505050565b80545f9081906001600160801b0380821691600160801b9004168103612ad457505f93849350915050565b6001600160801b038181165f908152600186810160205260408220805492905586546fffffffffffffffffffffffffffffffff1916938101909216929092179094559293915050565b82545f9081908015612c13575f612b3987611e916001856140f8565b805490915065ffffffffffff80821691600160301b90046001600160d01b0316908816821115612b7c57604051632520601d60e01b815260040160405180910390fd5b8765ffffffffffff168265ffffffffffff1603612bb557825465ffffffffffff16600160301b6001600160d01b03891602178355612c05565b6040805180820190915265ffffffffffff808a1682526001600160d01b03808a1660208085019182528d54600181018f555f8f81529190912094519151909216600160301b029216919091179101555b945085935061214492505050565b50506040805180820190915265ffffffffffff80851682526001600160d01b0380851660208085019182528854600181018a555f8a815291822095519251909316600160301b029190931617920191909155905081612144565b5f81815260096020526040812060028101546001820154612c8e9190613ff3565b612c9a6109ae85610d83565b11159392505050565b5f80612cb1868686866112ba565b9050612cff81612cc160076115af565b612ccb60066115af565b612cd560026115af565b6001612ce26007826141da565b612ced9060026142ce565b612cf791906140f8565b1818186115d1565b505f818152600460205260409081902080546001600160f81b0316600160f81b179055517f789cf55be980739dad1d0699b93b58e806b51c9d96619bfa8fe0a28abaa7b30c90610d729083815260200190565b5f306001600160a01b037f000000000000000000000000000000000000000000000000000000000000000016148015612daa57507f000000000000000000000000000000000000000000000000000000000000000046145b15612dd457507f000000000000000000000000000000000000000000000000000000000000000090565b6109f8604080517f8b73c3c69bb8fe3d512ecc4cf759cc79239f7b179b0ffacaa9a75d522b39400f60208201527f0000000000000000000000000000000000000000000000000000000000000000918101919091527f000000000000000000000000000000000000000000000000000000000000000060608201524660808201523060a08201525f9060c00160405160208183030381529060405280519060200120905090565b5f805f8351604103612eb2576020840151604085015160608601515f1a612ea4888285856131dd565b955095509550505050612ebd565b505081515f91506002905b9250925092565b805160408051630b135d3f60e11b8082526004820186905260248201929092525f92906020820185604483015e60205f60648401838a5afa9050825f5114601f3d1116811693505050509392505050565b5f60018211612f22575090565b816001600160801b8210612f3b5760809190911c9060401b5b680100000000000000008210612f565760409190911c9060201b5b6401000000008210612f6d5760209190911c9060101b5b620100008210612f825760109190911c9060081b5b6101008210612f965760089190911c9060041b5b60108210612fa95760049190911c9060021b5b60048210612fb55760011b5b600302600190811c90818581612fcd57612fcd6141c6565b048201901c90506001818581612fe557612fe56141c6565b048201901c90506001818581612ffd57612ffd6141c6565b048201901c90506001818581613015576130156141c6565b048201901c9050600181858161302d5761302d6141c6565b048201901c90506001818581613045576130456141c6565b048201901c905061306481858161305e5761305e6141c6565b04821190565b90039392505050565b5f5b818310156130bb575f85815260209020838316600285851804019081015465ffffffffffff868116911611156130a7578092506130b5565b6130b2816001613ff3565b93505b5061306f565b509392505050565b5f8084816130d2866001613ff3565b851180156130fa575061060f60f31b6130ee8388016020015190565b6001600160f01b031916145b90505f61310a82151560026141af565b90505f80613118838a613ff3565b90505b87811015613173575f6131396131348784016020015190565b6132a5565b9050600f8160ff161115613158575f8097509750505050505050612144565b6131636010846141af565b60ff90911601915060010161311b565b506001999098509650505050505050565b60605f6131908361331d565b6040805160208082528183019092529192505f91906020820181803683375050509182525060208101929092525090565b5f805f1983850993909202808410938190039390930393915050565b5f80807f7fffffffffffffffffffffffffffffff5d576e7357a4501ddfe92f46681b20a084111561321657505f9150600390508261329b565b604080515f808252602082018084528a905260ff891692820192909252606081018790526080810186905260019060a0016020604051602081039080840390855afa158015613267573d5f803e3d5ffd5b5050604051601f1901519150506001600160a01b03811661329257505f92506001915082905061329b565b92505f91508190505b9450945094915050565b5f60f882901c602f811180156132be5750603a8160ff16105b156132cc57602f1901610a63565b60608160ff161180156132e2575060678160ff16105b156132f05760561901610a63565b60408160ff16118015613306575060478160ff16105b156133145760361901610a63565b5060ff92915050565b5f60ff8216601f811115610a6357604051632cd44ac360e21b815260040160405180910390fd5b5f60208284031215613354575f80fd5b81356001600160e01b031981168114611289575f80fd5b5f6020828403121561337b575f80fd5b5035919050565b5f81518084528060208401602086015e5f602082860101526020601f19601f83011685010191505092915050565b602081525f6112896020830184613382565b6001600160a01b0381168114610a7a575f80fd5b634e487b7160e01b5f52604160045260245ffd5b604051601f8201601f191681016001600160401b0381118282101715613412576134126133d6565b604052919050565b5f6001600160401b03821115613432576134326133d6565b50601f01601f191660200190565b5f61345261344d8461341a565b6133ea565b9050828152838383011115613465575f80fd5b828260208301375f602084830101529392505050565b5f82601f83011261348a575f80fd5b61128983833560208501613440565b5f805f80608085870312156134ac575f80fd5b84356134b7816133c2565b935060208501356134c7816133c2565b92506040850135915060608501356001600160401b038111156134e8575f80fd5b6134f48782880161347b565b91505092959194509250565b5f6001600160401b03821115613518576135186133d6565b5060051b60200190565b5f82601f830112613531575f80fd5b813561353f61344d82613500565b8082825260208201915060208360051b860101925085831115613560575f80fd5b602085015b83811015610c11578035613578816133c2565b835260209283019201613565565b5f82601f830112613595575f80fd5b81356135a361344d82613500565b8082825260208201915060208360051b8601019250858311156135c4575f80fd5b602085015b83811015610c115780358352602092830192016135c9565b5f82601f8301126135f0575f80fd5b81356135fe61344d82613500565b8082825260208201915060208360051b86010192508583111561361f575f80fd5b602085015b83811015610c115780356001600160401b03811115613641575f80fd5b613650886020838a010161347b565b84525060209283019201613624565b5f805f8060808587031215613672575f80fd5b84356001600160401b03811115613687575f80fd5b61369387828801613522565b94505060208501356001600160401b038111156136ae575f80fd5b6136ba87828801613586565b93505060408501356001600160401b038111156136d5575f80fd5b6136e1878288016135e1565b949793965093946060013593505050565b634e487b7160e01b5f52602160045260245ffd5b6008811061372257634e487b7160e01b5f52602160045260245ffd5b9052565b60208101610a638284613706565b5f8060408385031215613745575f80fd5b823591506020830135613757816133c2565b809150509250929050565b803560ff81168114610ee0575f80fd5b5f8060408385031215613783575f80fd5b8235915061379360208401613762565b90509250929050565b5f8083601f8401126137ac575f80fd5b5081356001600160401b038111156137c2575f80fd5b6020830191508360208285010111156137d9575f80fd5b9250929050565b5f805f805f805f60c0888a0312156137f6575f80fd5b8735965061380660208901613762565b95506040880135613816816133c2565b945060608801356001600160401b03811115613830575f80fd5b61383c8a828b0161379c565b90955093505060808801356001600160401b0381111561385a575f80fd5b6138668a828b0161347b565b92505060a08801356001600160401b03811115613881575f80fd5b61388d8a828b0161347b565b91505092959891949750929550565b5f805f805f608086880312156138b0575f80fd5b853594506138c060208701613762565b935060408601356001600160401b038111156138da575f80fd5b6138e68882890161379c565b90945092505060608601356001600160401b03811115613904575f80fd5b6139108882890161347b565b9150509295509295909350565b65ffffffffffff81168114610a7a575f80fd5b5f60208284031215613940575f80fd5b81356112898161391d565b5f805f806060858703121561395e575f80fd5b8435935061396e60208601613762565b925060408501356001600160401b03811115613988575f80fd5b6139948782880161379c565b95989497509550505050565b5f805f80608085870312156139b3575f80fd5b84356001600160401b038111156139c8575f80fd5b6139d487828801613522565b94505060208501356001600160401b038111156139ef575f80fd5b6139fb87828801613586565b93505060408501356001600160401b03811115613a16575f80fd5b613a22878288016135e1565b92505060608501356001600160401b03811115613a3d575f80fd5b8501601f81018713613a4d575f80fd5b6134f487823560208401613440565b5f60208284031215613a6c575f80fd5b8135611289816133c2565b5f8151808452602084019350602083015f5b82811015613aa7578151865260209586019590910190600101613a89565b5093949350505050565b60ff60f81b8816815260e060208201525f613acf60e0830189613382565b8281036040840152613ae18189613382565b606084018890526001600160a01b038716608085015260a0840186905283810360c08501529050613b128185613a77565b9a9950505050505050505050565b5f805f8060808587031215613b33575f80fd5b84359350613b4360208601613762565b92506040850135613b53816133c2565b915060608501356001600160401b038111156134e8575f80fd5b5f805f60608486031215613b7f575f80fd5b8335613b8a816133c2565b92506020840135915060408401356001600160401b03811115613bab575f80fd5b613bb78682870161347b565b9150509250925092565b5f805f805f60a08688031215613bd5575f80fd5b8535613be0816133c2565b94506020860135613bf0816133c2565b935060408601356001600160401b03811115613c0a575f80fd5b613c1688828901613586565b93505060608601356001600160401b03811115613c31575f80fd5b613c3d88828901613586565b92505060808601356001600160401b03811115613904575f80fd5b5f805f8060608587031215613c6b575f80fd5b8435613c76816133c2565b93506020850135925060408501356001600160401b03811115613988575f80fd5b5f60208284031215613ca7575f80fd5b813563ffffffff81168114611289575f80fd5b5f8060408385031215613ccb575f80fd5b8235613cd6816133c2565b946020939093013593505050565b5f805f805f60a08688031215613cf8575f80fd5b8535613d03816133c2565b94506020860135613d13816133c2565b9350604086013592506060860135915060808601356001600160401b03811115613904575f80fd5b600181811c90821680613d4f57607f821691505b602082108103613d6d57634e487b7160e01b5f52602260045260245ffd5b50919050565b634e487b7160e01b5f52603260045260245ffd5b5f60208284031215613d97575f80fd5b81516001600160401b03811115613dac575f80fd5b8201601f81018413613dbc575f80fd5b8051613dca61344d8261341a565b818152856020838501011115613dde575f80fd5b8160208401602083015e5f91810160200191909152949350505050565b634e487b7160e01b5f52601160045260245ffd5b65ffffffffffff8281168282160390811115610a6357610a63613dfb565b5f60208284031215613e3d575f80fd5b81516112898161391d565b65ffffffffffff8181168382160190811115610a6357610a63613dfb565b818382375f9101908152919050565b5f8151808452602084019350602083015f5b82811015613aa75781516001600160a01b0316865260209586019590910190600101613e87565b5f82825180855260208501945060208160051b830101602085015f5b83811015613efc57601f19858403018852613ee6838351613382565b6020988901989093509190910190600101613eca565b50909695505050505050565b608081525f613f1a6080830187613e75565b8281036020840152613f2c8187613a77565b90508281036040840152613f408186613eae565b91505082606083015295945050505050565b83815260608101613f666020830185613706565b826040830152949350505050565b5f60208284031215613f84575f80fd5b81518015158114611289575f80fd5b84815260ff84166020820152826040820152608060608201525f6110996080830184613382565b85815260ff8516602082015283604082015260a060608201525f613fe160a0830185613382565b8281036080840152610fe28185613382565b80820180821115610a6357610a63613dfb565b8981526001600160a01b0389166020820152610120604082018190525f906140309083018a613e75565b8281036060840152614042818a613a77565b9050828103608084015280885180835260208301915060208160051b84010160208b015f5b8381101561409957601f19868403018552614083838351613382565b6020958601959093509190910190600101614067565b505085810360a08701526140ad818b613eae565b93505050508560c08401528460e08401528281036101008401526140d18185613382565b9c9b505050505050505050505050565b5f602082840312156140f1575f80fd5b5051919050565b81810381811115610a6357610a63613dfb565b60a081525f61411d60a0830188613e75565b828103602084015261412f8188613a77565b905082810360408401526141438187613eae565b60608401959095525050608001529392505050565b60c081525f61416a60c0830189613e75565b828103602084015261417c8189613a77565b905082810360408401526141908188613eae565b60608401969096525050608081019290925260a0909101529392505050565b8082028115828204841417610a6357610a63613dfb565b634e487b7160e01b5f52601260045260245ffd5b60ff8181168382160190811115610a6357610a63613dfb565b6001815b60018411156121445780850481111561421257614212613dfb565b600184161561422057908102905b60019390931c9280026141f7565b5f8261423c57506001610a63565b8161424857505f610a63565b816001811461425e576002811461426857614284565b6001915050610a63565b60ff84111561427957614279613dfb565b50506001821b610a63565b5060208310610133831016604e8410600b84101617156142a7575081810a610a63565b6142b35f1984846141f3565b805f19048211156142c6576142c6613dfb565b029392505050565b5f61128960ff84168361422e56fea2646970667358221220c19eda05d20cf2df21548e9c7f07bf8e6607169a1b3027b6b605c008c4b59e8164736f6c634300081a0033",
  "linkReferences": {},
  "deployedLinkReferences": {}
}