{
  "_format": "hh-sol-artifact-1",
  "contractName": "GovernedVault",
  "sourceName": "contracts/GovernedVault.sol",
  "abi": [
    {
      "inputs": [
        {
          "internalType": "contract IERC20",
          "name": "_asset",
          "type": "address"
        },
        {
          "internalType": "address",
          "name": "_timelock",
          "type": "address"
        },
        {
          "internalType": "address",
          "name": "_guardian",
          "type": "address"
        },
        {
          "internalType": "address",
          "name": "_initialStrategy",
          "type": "address"
        }
      ],
      "stateMutability": "nonpayable",
      "type": "constructor"
    },
    {
      "inputs": [],
      "name": "AccessControlBadConfirmation",
      "type": "error"
    },
    {
      "inputs": [
        {
          "internalType": "address",
          "name": "account",
          "type": "address"
        },
        {
          "internalType": "bytes32",
          "name": "neededRole",
          "type": "bytes32"
        }
      ],
      "name": "AccessControlUnauthorizedAccount",
      "type": "error"
    },
    {
      "inputs": [
        {
          "internalType": "address",
          "name": "spender",
          "type": "address"
        },
        {
          "internalType": "uint256",
          "name": "allowance",
          "type": "uint256"
        },
        {
          "internalType": "uint256",
          "name": "needed",
          "type": "uint256"
        }
      ],
      "name": "ERC20InsufficientAllowance",
      "type": "error"
    },
    {
      "inputs": [
        {
          "internalType": "address",
          "name": "sender",
          "type": "address"
        },
        {
          "internalType": "uint256",
          "name": "balance",
          "type": "uint256"
        },
        {
          "internalType": "uint256",
          "name": "needed",
          "type": "uint256"
        }
      ],
      "name": "ERC20InsufficientBalance",
      "type": "error"
    },
    {
      "inputs": [
        {
          "internalType": "address",
          "name": "approver",
          "type": "address"
        }
      ],
      "name": "ERC20InvalidApprover",
      "type": "error"
    },
    {
      "inputs": [
        {
          "internalType": "address",
          "name": "receiver",
          "type": "address"
        }
      ],
      "name": "ERC20InvalidReceiver",
      "type": "error"
    },
    {
      "inputs": [
        {
          "internalType": "address",
          "name": "sender",
          "type": "address"
        }
      ],
      "name": "ERC20InvalidSender",
      "type": "error"
    },
    {
      "inputs": [
        {
          "internalType": "address",
          "name": "spender",
          "type": "address"
        }
      ],
      "name": "ERC20InvalidSpender",
      "type": "error"
    },
    {
      "inputs": [
        {
          "internalType": "address",
          "name": "receiver",
          "type": "address"
        },
        {
          "internalType": "uint256",
          "name": "assets",
          "type": "uint256"
        },
        {
          "internalType": "uint256",
          "name": "max",
          "type": "uint256"
        }
      ],
      "name": "ERC4626ExceededMaxDeposit",
      "type": "error"
    },
    {
      "inputs": [
        {
          "internalType": "address",
          "name": "receiver",
          "type": "address"
        },
        {
          "internalType": "uint256",
          "name": "shares",
          "type": "uint256"
        },
        {
          "internalType": "uint256",
          "name": "max",
          "type": "uint256"
        }
      ],
      "name": "ERC4626ExceededMaxMint",
      "type": "error"
    },
    {
      "inputs": [
        {
          "internalType": "address",
          "name": "owner",
          "type": "address"
        },
        {
          "internalType": "uint256",
          "name": "shares",
          "type": "uint256"
        },
        {
          "internalType": "uint256",
          "name": "max",
          "type": "uint256"
        }
      ],
      "name": "ERC4626ExceededMaxRedeem",
      "type": "error"
    },
    {
      "inputs": [
        {
          "internalType": "address",
          "name": "owner",
          "type": "address"
        },
        {
          "internalType": "uint256",
          "name": "assets",
          "type": "uint256"
        },
        {
          "internalType": "uint256",
          "name": "max",
          "type": "uint256"
        }
      ],
      "name": "ERC4626ExceededMaxWithdraw",
      "type": "error"
    },
    {
      "inputs": [],
      "name": "EnforcedPause",
      "type": "error"
    },
    {
      "inputs": [],
      "name": "ExpectedPause",
      "type": "error"
    },
    {
      "inputs": [
        {
          "internalType": "address",
          "name": "token",
          "type": "address"
        }
      ],
      "name": "SafeERC20FailedOperation",
      "type": "error"
    },
    {
      "anonymous": false,
      "inputs": [
        {
          "indexed": true,
          "internalType": "address",
          "name": "owner",
          "type": "address"
        },
        {
          "indexed": true,
          "internalType": "address",
          "name": "spender",
          "type": "address"
        },
        {
          "indexed": false,
          "internalType": "uint256",
          "name": "value",
          "type": "uint256"
        }
      ],
      "name": "Approval",
      "type": "event"
    },
    {
      "anonymous": false,
      "inputs": [
        {
          "indexed": true,
          "internalType": "address",
          "name": "sender",
          "type": "address"
        },
        {
          "indexed": true,
          "internalType": "address",
          "name": "owner",
          "type": "address"
        },
        {
          "indexed": false,
          "internalType": "uint256",
          "name": "assets",
          "type": "uint256"
        },
        {
          "indexed": false,
          "internalType": "uint256",
          "name": "shares",
          "type": "uint256"
        }
      ],
      "name": "Deposit",
      "type": "event"
    },
    {
      "anonymous": false,
      "inputs": [
        {
          "indexed": false,
          "internalType": "address",
          "name": "account",
          "type": "address"
        }
      ],
      "name": "Paused",
      "type": "event"
    },
    {
      "anonymous": false,
      "inputs": [
        {
          "indexed": true,
          "internalType": "bytes32",
          "name": "role",
          "type": "bytes32"
        },
        {
          "indexed": true,
          "internalType": "bytes32",
          "name": "previousAdminRole",
          "type": "bytes32"
        },
        {
          "indexed": true,
          "internalType": "bytes32",
          "name": "newAdminRole",
          "type": "bytes32"
        }
      ],
      "name": "RoleAdminChanged",
      "type": "event"
    },
    {
      "anonymous": false,
      "inputs": [
        {
          "indexed": true,
          "internalType": "bytes32",
          "name": "role",
          "type": "bytes32"
        },
        {
          "indexed": true,
          "internalType": "address",
          "name": "account",
          "type": "address"
        },
        {
          "indexed": true,
          "internalType": "address",
          "name": "sender",
          "type": "address"
        }
      ],
      "name": "RoleGranted",
      "type": "event"
    },
    {
      "anonymous": false,
      "inputs": [
        {
          "indexed": true,
          "internalType": "bytes32",
          "name": "role",
          "type": "bytes32"
        },
        {
          "indexed": true,
          "internalType": "address",
          "name": "account",
          "type": "address"
        },
        {
          "indexed": true,
          "internalType": "address",
          "name": "sender",
          "type": "address"
        }
      ],
      "name": "RoleRevoked",
      "type": "event"
    },
    {
      "anonymous": false,
      "inputs": [
        {
          "indexed": true,
          "internalType": "address",
          "name": "oldStrategy",
          "type": "address"
        },
        {
          "indexed": true,
          "internalType": "address",
          "name": "newStrategy",
          "type": "address"
        }
      ],
      "name": "StrategyChanged",
      "type": "event"
    },
    {
      "anonymous": false,
      "inputs": [
        {
          "indexed": true,
          "internalType": "address",
          "name": "from",
          "type": "address"
        },
        {
          "indexed": true,
          "internalType": "address",
          "name": "to",
          "type": "address"
        },
        {
          "indexed": false,
          "internalType": "uint256",
          "name": "value",
          "type": "uint256"
        }
      ],
      "name": "Transfer",
      "type": "event"
    },
    {
      "anonymous": false,
      "inputs": [
        {
          "indexed": false,
          "internalType": "address",
          "name": "account",
          "type": "address"
        }
      ],
      "name": "Unpaused",
      "type": "event"
    },
    {
      "anonymous": false,
      "inputs": [
        {
          "indexed": true,
          "internalType": "address",
          "name": "sender",
          "type": "address"
        },
        {
          "indexed": true,
          "internalType": "address",
          "name": "receiver",
          "type": "address"
        },
        {
          "indexed": true,
          "internalType": "address",
          "name": "owner",
          "type": "address"
        },
        {
          "indexed": false,
          "internalType": "uint256",
          "name": "assets",
          "type": "uint256"
        },
        {
          "indexed": false,
          "internalType": "uint256",
          "name": "shares",
          "type": "uint256"
        }
      ],
      "name": "Withdraw",
      "type": "event"
    },
    {
      "inputs": [],
      "name": "DEFAULT_ADMIN_ROLE",
      "outputs": [
        {
          "internalType": "bytes32",
          "name": "",
          "type": "bytes32"
        }
      ],
      "stateMutability": "view",
      "type": "function"
    },
    {
      "inputs": [],
      "name": "GUARDIAN_ROLE",
      "outputs": [
        {
          "internalType": "bytes32",
          "name": "",
          "type": "bytes32"
        }
      ],
      "stateMutability": "view",
      "type": "function"
    },
    {
      "inputs": [],
      "name": "TIMELOCK_ROLE",
      "outputs": [
        {
          "internalType": "bytes32",
          "name": "",
          "type": "bytes32"
        }
      ],
      "stateMutability": "view",
      "type": "function"
    },
    {
      "inputs": [
        {
          "internalType": "address",
          "name": "owner",
          "type": "address"
        },
        {
          "internalType": "address",
          "name": "spender",
          "type": "address"
        }
      ],
      "name": "allowance",
      "outputs": [
        {
          "internalType": "uint256",
          "name": "",
          "type": "uint256"
        }
      ],
      "stateMutability": "view",
      "type": "function"
    },
    {
      "inputs": [
        {
          "internalType": "address",
          "name": "spender",
          "type": "address"
        },
        {
          "internalType": "uint256",
          "name": "value",
          "type": "uint256"
        }
      ],
      "name": "approve",
      "outputs": [
        {
          "internalType": "bool",
          "name": "",
          "type": "bool"
        }
      ],
      "stateMutability": "nonpayable",
      "type": "function"
    },
    {
      "inputs": [],
      "name": "asset",
      "outputs": [
        {
          "internalType": "address",
          "name": "",
          "type": "address"
        }
      ],
      "stateMutability": "view",
      "type": "function"
    },
    {
      "inputs": [
        {
          "internalType": "address",
          "name": "account",
          "type": "address"
        }
      ],
      "name": "balanceOf",
      "outputs": [
        {
          "internalType": "uint256",
          "name": "",
          "type": "uint256"
        }
      ],
      "stateMutability": "view",
      "type": "function"
    },
    {
      "inputs": [
        {
          "internalType": "uint256",
          "name": "shares",
          "type": "uint256"
        }
      ],
      "name": "convertToAssets",
      "outputs": [
        {
          "internalType": "uint256",
          "name": "",
          "type": "uint256"
        }
      ],
      "stateMutability": "view",
      "type": "function"
    },
    {
      "inputs": [
        {
          "internalType": "uint256",
          "name": "assets",
          "type": "uint256"
        }
      ],
      "name": "convertToShares",
      "outputs": [
        {
          "internalType": "uint256",
          "name": "",
          "type": "uint256"
        }
      ],
      "stateMutability": "view",
      "type": "function"
    },
    {
      "inputs": [],
      "name": "decimals",
      "outputs": [
        {
          "internalType": "uint8",
          "name": "",
          "type": "uint8"
        }
      ],
      "stateMutability": "view",
      "type": "function"
    },
    {
      "inputs": [
        {
          "internalType": "uint256",
          "name": "assets",
          "type": "uint256"
        },
        {
          "internalType": "address",
          "name": "receiver",
          "type": "address"
        }
      ],
      "name": "deposit",
      "outputs": [
        {
          "internalType": "uint256",
          "name": "",
          "type": "uint256"
        }
      ],
      "stateMutability": "nonpayable",
      "type": "function"
    },
    {
      "inputs": [
        {
          "internalType": "bytes32",
          "name": "role",
          "type": "bytes32"
        }
      ],
      "name": "getRoleAdmin",
      "outputs": [
        {
          "internalType": "bytes32",
          "name": "",
          "type": "bytes32"
        }
      ],
      "stateMutability": "view",
      "type": "function"
    },
    {
      "inputs": [
        {
          "internalType": "bytes32",
          "name": "role",
          "type": "bytes32"
        },
        {
          "internalType": "address",
          "name": "account",
          "type": "address"
        }
      ],
      "name": "grantRole",
      "outputs": [],
      "stateMutability": "nonpayable",
      "type": "function"
    },
    {
      "inputs": [
        {
          "internalType": "bytes32",
          "name": "role",
          "type": "bytes32"
        },
        {
          "internalType": "address",
          "name": "account",
          "type": "address"
        }
      ],
      "name": "hasRole",
      "outputs": [
        {
          "internalType": "bool",
          "name": "",
          "type": "bool"
        }
      ],
      "stateMutability": "view",
      "type": "function"
    },
    {
      "inputs": [
        {
          "internalType": "address",
          "name": "",
          "type": "address"
        }
      ],
      "name": "maxDeposit",
      "outputs": [
        {
          "internalType": "uint256",
          "name": "",
          "type": "uint256"
        }
      ],
      "stateMutability": "view",
      "type": "function"
    },
    {
      "inputs": [
        {
          "internalType": "address",
          "name": "",
          "type": "address"
        }
      ],
      "name": "maxMint",
      "outputs": [
        {
          "internalType": "uint256",
          "name": "",
          "type": "uint256"
        }
      ],
      "stateMutability": "view",
      "type": "function"
    },
    {
      "inputs": [
        {
          "internalType": "address",
          "name": "owner",
          "type": "address"
        }
      ],
      "name": "maxRedeem",
      "outputs": [
        {
          "internalType": "uint256",
          "name": "",
          "type": "uint256"
        }
      ],
      "stateMutability": "view",
      "type": "function"
    },
    {
      "inputs": [
        {
          "internalType": "address",
          "name": "owner",
          "type": "address"
        }
      ],
      "name": "maxWithdraw",
      "outputs": [
        {
          "internalType": "uint256",
          "name": "",
          "type": "uint256"
        }
      ],
      "stateMutability": "view",
      "type": "function"
    },
    {
      "inputs": [
        {
          "internalType": "uint256",
          "name": "shares",
          "type": "uint256"
        },
        {
          "internalType": "address",
          "name": "receiver",
          "type": "address"
        }
      ],
      "name": "mint",
      "outputs": [
        {
          "internalType": "uint256",
          "name": "",
          "type": "uint256"
        }
      ],
      "stateMutability": "nonpayable",
      "type": "function"
    },
    {
      "inputs": [],
      "name": "name",
      "outputs": [
        {
          "internalType": "string",
          "name": "",
          "type": "string"
        }
      ],
      "stateMutability": "view",
      "type": "function"
    },
    {
      "inputs": [],
      "name": "pause",
      "outputs": [],
      "stateMutability": "nonpayable",
      "type": "function"
    },
    {
      "inputs": [],
      "name": "paused",
      "outputs": [
        {
          "internalType": "bool",
          "name": "",
          "type": "bool"
        }
      ],
      "stateMutability": "view",
      "type": "function"
    },
    {
      "inputs": [
        {
          "internalType": "uint256",
          "name": "assets",
          "type": "uint256"
        }
      ],
      "name": "previewDeposit",
      "outputs": [
        {
          "internalType": "uint256",
          "name": "",
          "type": "uint256"
        }
      ],
      "stateMutability": "view",
      "type": "function"
    },
    {
      "inputs": [
        {
          "internalType": "uint256",
          "name": "shares",
          "type": "uint256"
        }
      ],
      "name": "previewMint",
      "outputs": [
        {
          "internalType": "uint256",
          "name": "",
          "type": "uint256"
        }
      ],
      "stateMutability": "view",
      "type": "function"
    },
    {
      "inputs": [
        {
          "internalType": "uint256",
          "name": "shares",
          "type": "uint256"
        }
      ],
      "name": "previewRedeem",
      "outputs": [
        {
          "internalType": "uint256",
          "name": "",
          "type": "uint256"
        }
      ],
      "stateMutability": "view",
      "type": "function"
    },
    {
      "inputs": [
        {
          "internalType": "uint256",
          "name": "assets",
          "type": "uint256"
        }
      ],
      "name": "previewWithdraw",
      "outputs": [
        {
          "internalType": "uint256",
          "name": "",
          "type": "uint256"
        }
      ],
      "stateMutability": "view",
      "type": "function"
    },
    {
      "inputs": [
        {
          "internalType": "uint256",
          "name": "shares",
          "type": "uint256"
        },
        {
          "internalType": "address",
          "name": "receiver",
          "type": "address"
        },
        {
          "internalType": "address",
          "name": "owner",
          "type": "address"
        }
      ],
      "name": "redeem",
      "outputs": [
        {
          "internalType": "uint256",
          "name": "",
          "type": "uint256"
        }
      ],
      "stateMutability": "nonpayable",
      "type": "function"
    },
    {
      "inputs": [
        {
          "internalType": "bytes32",
          "name": "role",
          "type": "bytes32"
        },
        {
          "internalType": "address",
          "name": "callerConfirmation",
          "type": "address"
        }
      ],
      "name": "renounceRole",
      "outputs": [],
      "stateMutability": "nonpayable",
      "type": "function"
    },
    {
      "inputs": [
        {
          "internalType": "bytes32",
          "name": "role",
          "type": "bytes32"
        },
        {
          "internalType": "address",
          "name": "account",
          "type": "address"
        }
      ],
      "name": "revokeRole",
      "outputs": [],
      "stateMutability": "nonpayable",
      "type": "function"
    },
    {
      "inputs": [
        {
          "internalType": "address",
          "name": "_newStrategy",
          "type": "address"
        }
      ],
      "name": "setStrategy",
      "outputs": [],
      "stateMutability": "nonpayable",
      "type": "function"
    },
    {
      "inputs": [],
      "name": "strategy",
      "outputs": [
        {
          "internalType": "address",
          "name": "",
          "type": "address"
        }
      ],
      "stateMutability": "view",
      "type": "function"
    },
    {
      "inputs": [
        {
          "internalType": "bytes4",
          "name": "interfaceId",
          "type": "bytes4"
        }
      ],
      "name": "supportsInterface",
      "outputs": [
        {
          "internalType": "bool",
          "name": "",
          "type": "bool"
        }
      ],
      "stateMutability": "view",
      "type": "function"
    },
    {
      "inputs": [],
      "name": "symbol",
      "outputs": [
        {
          "internalType": "string",
          "name": "",
          "type": "string"
        }
      ],
      "stateMutability": "view",
      "type": "function"
    },
    {
      "inputs": [],
      "name": "totalAssets",
      "outputs": [
        {
          "internalType": "uint256",
          "name": "",
          "type": "uint256"
        }
      ],
      "stateMutability": "view",
      "type": "function"
    },
    {
      "inputs": [],
      "name": "totalSupply",
      "outputs": [
        {
          "internalType": "uint256",
          "name": "",
          "type": "uint256"
        }
      ],
      "stateMutability": "view",
      "type": "function"
    },
    {
      "inputs": [
        {
          "internalType": "address",
          "name": "to",
          "type": "address"
        },
        {
          "internalType": "uint256",
          "name": "value",
          "type": "uint256"
        }
      ],
      "name": "transfer",
      "outputs": [
        {
          "internalType": "bool",
          "name": "",
          "type": "bool"
        }
      ],
      "stateMutability": "nonpayable",
      "type": "function"
    },
    {
      "inputs": [
        {
          "internalType": "address",
          "name": "from",
          "type": "address"
        },
        {
          "internalType": "address",
          "name": "to",
          "type": "address"
        },
        {
          "internalType": "uint256",
          "name": "value",
          "type": "uint256"
        }
      ],
      "name": "transferFrom",
      "outputs": [
        {
          "internalType": "bool",
          "name": "",
          "type": "bool"
        }
      ],
      "stateMutability": "nonpayable",
      "type": "function"
    },
    {
      "inputs": [],
      "name": "unpause",
      "outputs": [],
      "stateMutability": "nonpayable",
      "type": "function"
    },
    {
      "inputs": [
        {
          "internalType": "uint256",
          "name": "assets",
          "type": "uint256"
        },
        {
          "internalType": "address",
          "name": "receiver",
          "type": "address"
        },
        {
          "internalType": "address",
          "name": "owner",
          "type": "address"
        }
      ],
      "name": "withdraw",
      "outputs": [
        {
          "internalType": "uint256",
          "name": "",
          "type": "uint256"
        }
      ],
      "stateMutability": "nonpayable",
      "type": "function"
    }
  ],
  "bytecode": "0x60c060405234801561000f575f80fd5b50604051611c11380380611c1183398101604081905261002e916102e1565b836040518060400160405280601481526020017f476f7665726e65645661756c74205368617265730000000000000000000000008152506040518060400160405280600781526020016633bb2a27a5a2a760c91b815250816003908161009491906103d5565b5060046100a182826103d5565b5050505f806100b58361016b60201b60201c565b91509150816100c55760126100c7565b805b60ff1660a05250506001600160a01b03166080526100e55f336101fc565b506101107ff66846415d2bf9eabda9e84793ff9c0ea96d87f50fc41e66aa16469c6a442f05846101fc565b5061013b7f55435dd261a4b9b3364963f7738a7a662ad9c84396d64be3365284bb7f0a5041836101fc565b50600680546001600160a01b0390921661010002610100600160a81b03199092169190911790555061048f915050565b5f808061017760405190565b6040805160048152602481019091526020810180516001600160e01b0390811663313ce56760e01b179091529192505f9182916101b7918891906102a916565b5090925090506101c683604052565b8180156101d4575060203d10155b80156101e1575060ff8111155b6101ec575f806101f0565b6001815b94509450505050915091565b5f8281526005602090815260408083206001600160a01b038516845290915281205460ff166102a0575f8381526005602090815260408083206001600160a01b03861684529091529020805460ff191660011790556102583390565b6001600160a01b0316826001600160a01b0316847f2f8788117e7eff1d82e926ec794901d17c78024a50270940304540a733656f0d60405160405180910390a45060016102a3565b505f5b92915050565b5f805f60405f855160208701885afa92505f51915060205190509250925092565b6001600160a01b03811681146102de575f80fd5b50565b5f805f80608085870312156102f4575f80fd5b84516102ff816102ca565b6020860151909450610310816102ca565b6040860151909350610321816102ca565b6060860151909250610332816102ca565b939692955090935050565b634e487b7160e01b5f52604160045260245ffd5b600181811c9082168061036557607f821691505b60208210810361038357634e487b7160e01b5f52602260045260245ffd5b50919050565b601f8211156103d057805f5260205f20601f840160051c810160208510156103ae5750805b601f840160051c820191505b818110156103cd575f81556001016103ba565b50505b505050565b81516001600160401b038111156103ee576103ee61033d565b610402816103fc8454610351565b84610389565b6020601f821160018114610434575f831561041d5750848201515b5f19600385901b1c1916600184901b1784556103cd565b5f84815260208120601f198516915b828110156104635787850151825560209485019460019092019101610443565b508482101561048057868401515f19600387901b60f8161c191681555b50505050600190811b01905550565b60805160a05161174c6104c55f395f61073e01525f818161037f01528181610568015281816110c301526111ca015261174c5ff3fe608060405234801561000f575f80fd5b5060043610610234575f3560e01c80636e553f6511610135578063b460af94116100b4578063d547741f11610079578063d547741f146104e0578063d905777e146104f3578063dd62ed3e14610506578063ef8b30f7146104ba578063f288a2e21461053e575f80fd5b8063b460af9414610494578063ba087652146104a7578063c63d75b6146103bf578063c6e6f592146104ba578063ce96cb77146104cd575f80fd5b806395d89b41116100fa57806395d89b4114610447578063a217fddf1461044f578063a8c62e7614610456578063a9059cbb1461046e578063b3d7f6b914610481575f80fd5b80636e553f65146103de57806370a08231146103f15780638456cb591461041957806391d148541461042157806394bf804d14610434575f80fd5b806324ea54f4116101c157806338d52e0f1161018657806338d52e0f1461037d5780633f4ba83a146103b7578063402d267d146103bf5780634cdad5061461028b5780635c975abb146103d3575f80fd5b806324ea54f4146103015780632f2ff15d14610328578063313ce5671461033d57806333a100ca1461035757806336568abe1461036a575f80fd5b8063095ea7b311610207578063095ea7b31461029e5780630a28a477146102b157806318160ddd146102c457806323b872dd146102cc578063248a9ca3146102df575f80fd5b806301e1d1141461023857806301ffc9a71461025357806306fdde031461027657806307a2d13a1461028b575b5f80fd5b610240610565565b6040519081526020015b60405180910390f35b61026661026136600461138c565b6105f4565b604051901515815260200161024a565b61027e61062a565b60405161024a91906113b3565b6102406102993660046113e8565b6106ba565b6102666102ac36600461141a565b6106c5565b6102406102bf3660046113e8565b6106dc565b600254610240565b6102666102da366004611442565b6106e8565b6102406102ed3660046113e8565b5f9081526005602052604090206001015490565b6102407f55435dd261a4b9b3364963f7738a7a662ad9c84396d64be3365284bb7f0a504181565b61033b61033636600461147c565b61070d565b005b610345610737565b60405160ff909116815260200161024a565b61033b6103653660046114a6565b610762565b61033b61037836600461147c565b6107e6565b7f00000000000000000000000000000000000000000000000000000000000000005b6040516001600160a01b03909116815260200161024a565b61033b61081e565b6102406103cd3660046114a6565b505f1990565b60065460ff16610266565b6102406103ec36600461147c565b610833565b6102406103ff3660046114a6565b6001600160a01b03165f9081526020819052604090205490565b61033b610864565b61026661042f36600461147c565b610896565b61024061044236600461147c565b6108c0565b61027e6108db565b6102405f81565b60065461039f9061010090046001600160a01b031681565b61026661047c36600461141a565b6108ea565b61024061048f3660046113e8565b6108f7565b6102406104a23660046114bf565b610903565b6102406104b53660046114bf565b610959565b6102406104c83660046113e8565b6109a6565b6102406104db3660046114a6565b6109b1565b61033b6104ee36600461147c565b6109be565b6102406105013660046114a6565b6109e2565b6102406105143660046114f8565b6001600160a01b039182165f90815260016020908152604080832093909416825291909152205490565b6102407ff66846415d2bf9eabda9e84793ff9c0ea96d87f50fc41e66aa16469c6a442f0581565b5f7f00000000000000000000000000000000000000000000000000000000000000006040516370a0823160e01b81523060048201526001600160a01b0391909116906370a0823190602401602060405180830381865afa1580156105cb573d5f803e3d5ffd5b505050506040513d601f19601f820116820180604052508101906105ef9190611520565b905090565b5f6001600160e01b03198216637965db0b60e01b148061062457506301ffc9a760e01b6001600160e01b03198316145b92915050565b60606003805461063990611537565b80601f016020809104026020016040519081016040528092919081815260200182805461066590611537565b80156106b05780601f10610687576101008083540402835291602001916106b0565b820191905f5260205f20905b81548152906001019060200180831161069357829003601f168201915b5050505050905090565b5f610624825f6109ff565b5f336106d2818585610a37565b5060019392505050565b5f610624826001610a44565b5f336106f5858285610a73565b610700858585610ad6565b60019150505b9392505050565b5f8281526005602052604090206001015461072781610b33565b6107318383610b3d565b50505050565b5f6105ef817f0000000000000000000000000000000000000000000000000000000000000000611583565b7ff66846415d2bf9eabda9e84793ff9c0ea96d87f50fc41e66aa16469c6a442f0561078c81610b33565b600680546001600160a01b03848116610100818102610100600160a81b031985161790945560405193909204169182907f254c88e7a2ea123aeeb89b7cc413fb949188fefcdb7584c4f3d493294daf65c5905f90a3505050565b6001600160a01b038116331461080f5760405163334bd91960e11b815260040160405180910390fd5b6108198282610bce565b505050565b5f61082881610b33565b610830610c39565b50565b5f5f19610844565b60405180910390fd5b5f61084e856109a6565b905061085c33858784610c8b565b949350505050565b7f55435dd261a4b9b3364963f7738a7a662ad9c84396d64be3365284bb7f0a504161088e81610b33565b610830610c9f565b5f9182526005602090815260408084206001600160a01b0393909316845291905290205460ff1690565b5f5f195f6108cd856108f7565b905061085c33858388610c8b565b60606004805461063990611537565b5f336106d2818585610ad6565b5f6106248260016109ff565b5f8061090e836109b1565b90508085111561093757828582604051633fa733bb60e21b815260040161083b9392919061159c565b5f610941866106dc565b90506109503386868985610cdc565b95945050505050565b5f80610964836109e2565b90508085111561098d57828582604051632e52afbb60e21b815260040161083b9392919061159c565b5f610997866106ba565b9050610950338686848a610cdc565b5f610624825f610a44565b5f610624610299836109e2565b5f828152600560205260409020600101546109d881610b33565b6107318383610bce565b6001600160a01b0381165f90815260208190526040812054610624565b5f610706610a0b610565565b610a169060016115bd565b610a215f600a6116b3565b600254610a2e91906115bd565b85919085610d7b565b6108198383836001610dbd565b5f610706610a5382600a6116b3565b600254610a6091906115bd565b610a68610565565b610a2e9060016115bd565b6001600160a01b038381165f908152600160209081526040808320938616835292905220545f198110156107315781811015610ac857828183604051637dc7a0d960e11b815260040161083b9392919061159c565b61073184848484035f610dbd565b6001600160a01b038316610aff57604051634b637e8f60e11b81525f600482015260240161083b565b6001600160a01b038216610b285760405163ec442f0560e01b81525f600482015260240161083b565b610819838383610e8f565b6108308133610fa2565b5f610b488383610896565b610bc7575f8381526005602090815260408083206001600160a01b03861684529091529020805460ff19166001179055610b7f3390565b6001600160a01b0316826001600160a01b0316847f2f8788117e7eff1d82e926ec794901d17c78024a50270940304540a733656f0d60405160405180910390a4506001610624565b505f610624565b5f610bd98383610896565b15610bc7575f8381526005602090815260408083206001600160a01b0386168085529252808320805460ff1916905551339286917ff6391f5c32d9c69d2a47ea670b442974b53935d1edc7fd64eb21e047a839171b9190a4506001610624565b610c41610fdf565b6006805460ff191690557f5db9ee0a495bf2e6ff9c91a7834c1ba4fdd244a5e8aa4e537bd38aeae4b073aa335b6040516001600160a01b03909116815260200160405180910390a1565b610c93611004565b61073184848484611028565b610ca7611004565b6006805460ff191660011790557f62e78cea01bee320cd4e420270b5ea74000d11b0c9f74754ebdbfc544b05a258610c6e3390565b826001600160a01b0316856001600160a01b031614610d0057610d00838683610a73565b610d0a838261108a565b610d1484836110be565b826001600160a01b0316846001600160a01b0316866001600160a01b03167ffbde797d201c681b91056529119e0b02407c7bb96a4a2c75c01fc9667232c8db8585604051610d6c929190918252602082015260400190565b60405180910390a45050505050565b5f610da8610d88836110e9565b8015610da357505f8480610d9e57610d9e6116c1565b868809115b151590565b610db3868686611115565b61095091906115bd565b6001600160a01b038416610de65760405163e602df0560e01b81525f600482015260240161083b565b6001600160a01b038316610e0f57604051634a1406b160e11b81525f600482015260240161083b565b6001600160a01b038085165f908152600160209081526040808320938716835292905220829055801561073157826001600160a01b0316846001600160a01b03167f8c5be1e5ebec7d5bd14f71427d1e84f3dd0314c0f7b2291e5b200ac8c7c3b92584604051610e8191815260200190565b60405180910390a350505050565b6001600160a01b038316610eb9578060025f828254610eae91906115bd565b90915550610f169050565b6001600160a01b0383165f9081526020819052604090205481811015610ef85783818360405163391434e360e21b815260040161083b9392919061159c565b6001600160a01b0384165f9081526020819052604090209082900390555b6001600160a01b038216610f3257600280548290039055610f50565b6001600160a01b0382165f9081526020819052604090208054820190555b816001600160a01b0316836001600160a01b03167fddf252ad1be2c89b69c2b068fc378daa952ba7f163c4a11628f55a4df523b3ef83604051610f9591815260200190565b60405180910390a3505050565b610fac8282610896565b610fdb5760405163e2517d3f60e01b81526001600160a01b03821660048201526024810183905260440161083b565b5050565b60065460ff1661100257604051638dfc202b60e01b815260040160405180910390fd5b565b60065460ff16156110025760405163d93c066560e01b815260040160405180910390fd5b61103284836111c5565b61103c83826111f1565b826001600160a01b0316846001600160a01b03167fdcbc1c05240f31ff3ad067ef1ee35ce4997762752e3a095284754544f4c709d78484604051610e81929190918252602082015260400190565b6001600160a01b0382166110b357604051634b637e8f60e11b81525f600482015260240161083b565b610fdb825f83610e8f565b610fdb7f00000000000000000000000000000000000000000000000000000000000000008383611225565b5f60028260038111156110fe576110fe6116d5565b61110891906116e9565b60ff166001149050919050565b5f805f611122868661125a565b91509150815f036111465783818161113c5761113c6116c1565b0492505050610706565b81841161115d5761115d6003851502601118611276565b5f848688095f868103871696879004966002600389028118808a02820302808a02820302808a02820302808a02820302808a02820302808a02909103029181900381900460010185841190960395909502919093039390930492909217029150509392505050565b610fdb7f0000000000000000000000000000000000000000000000000000000000000000833084611287565b6001600160a01b03821661121a5760405163ec442f0560e01b81525f600482015260240161083b565b610fdb5f8383610e8f565b61123283838360016112bd565b61081957604051635274afe760e01b81526001600160a01b038416600482015260240161083b565b5f805f1983850993909202808410938190039390930393915050565b634e487b715f52806020526024601cfd5b61129584848484600161131f565b61073157604051635274afe760e01b81526001600160a01b038516600482015260240161083b565b60405163a9059cbb60e01b5f8181526001600160a01b038616600452602485905291602083604481808b5af1925060015f51148316611313578383151615611307573d5f823e3d81fd5b5f873b113d1516831692505b60405250949350505050565b6040516323b872dd60e01b5f8181526001600160a01b038781166004528616602452604485905291602083606481808c5af1925060015f5114831661137b57838315161561136f573d5f823e3d81fd5b5f883b113d1516831692505b604052505f60605295945050505050565b5f6020828403121561139c575f80fd5b81356001600160e01b031981168114610706575f80fd5b602081525f82518060208401528060208501604085015e5f604082850101526040601f19601f83011684010191505092915050565b5f602082840312156113f8575f80fd5b5035919050565b80356001600160a01b0381168114611415575f80fd5b919050565b5f806040838503121561142b575f80fd5b611434836113ff565b946020939093013593505050565b5f805f60608486031215611454575f80fd5b61145d846113ff565b925061146b602085016113ff565b929592945050506040919091013590565b5f806040838503121561148d575f80fd5b8235915061149d602084016113ff565b90509250929050565b5f602082840312156114b6575f80fd5b610706826113ff565b5f805f606084860312156114d1575f80fd5b833592506114e1602085016113ff565b91506114ef604085016113ff565b90509250925092565b5f8060408385031215611509575f80fd5b611512836113ff565b915061149d602084016113ff565b5f60208284031215611530575f80fd5b5051919050565b600181811c9082168061154b57607f821691505b60208210810361156957634e487b7160e01b5f52602260045260245ffd5b50919050565b634e487b7160e01b5f52601160045260245ffd5b60ff81811683821601908111156106245761062461156f565b6001600160a01b039390931683526020830191909152604082015260600190565b808201808211156106245761062461156f565b6001815b600184111561160b578085048111156115ef576115ef61156f565b60018416156115fd57908102905b60019390931c9280026115d4565b935093915050565b5f8261162157506001610624565b8161162d57505f610624565b8160018114611643576002811461164d57611669565b6001915050610624565b60ff84111561165e5761165e61156f565b50506001821b610624565b5060208310610133831016604e8410600b841016171561168c575081810a610624565b6116985f1984846115d0565b805f19048211156116ab576116ab61156f565b029392505050565b5f61070660ff841683611613565b634e487b7160e01b5f52601260045260245ffd5b634e487b7160e01b5f52602160045260245ffd5b5f60ff83168061170757634e487b7160e01b5f52601260045260245ffd5b8060ff8416069150509291505056fea26469706673582212202d7c9e764d055d2727d30cb41c622906ae77106bea9fb3f21f84f75f01fffd8d64736f6c634300081a0033",
  "linkReferences": {},
  "deployedLinkReferences": {}
}