{
  "_format": "hh-sol-artifact-1",
  "contractName": "VaultToken",
  "sourceName": "contracts/VaultToken.sol",
  "abi": [
    {
      "inputs": [],
      "stateMutability": "nonpayable",
      "type": "constructor"
    },
    {
      "inputs": [],
      "name": "CheckpointUnorderedInsertion",
      "type": "error"
    },
    {
      "inputs": [],
      "name": "ECDSAInvalidSignature",
      "type": "error"
    },
    {
      "inputs": [
        {
          "internalType": "uint256",
          "name": "length",
          "type": "uint256"
        }
      ],
      "name": "ECDSAInvalidSignatureLength",
      "type": "error"
    },
    {
      "inputs": [
        {
          "internalType": "bytes32",
          "name": "s",
          "type": "bytes32"
        }
      ],
      "name": "ECDSAInvalidSignatureS",
      "type": "error"
    },
    {
      "inputs": [
        {
          "internalType": "uint256",
          "name": "increasedSupply",
          "type": "uint256"
        },
        {
          "internalType": "uint256",
          "name": "cap",
          "type": "uint256"
        }
      ],
      "name": "ERC20ExceededSafeSupply",
      "type": "error"
    },
    {
      "inputs": [
        {
          "internalType": "address",
          "name": "spender",
          "type": "address"
        },
        {
          "internalType": "uint256",
          "name": "allowance",
          "type": "uint256"
        },
        {
          "internalType": "uint256",
          "name": "needed",
          "type": "uint256"
        }
      ],
      "name": "ERC20InsufficientAllowance",
      "type": "error"
    },
    {
      "inputs": [
        {
          "internalType": "address",
          "name": "sender",
          "type": "address"
        },
        {
          "internalType": "uint256",
          "name": "balance",
          "type": "uint256"
        },
        {
          "internalType": "uint256",
          "name": "needed",
          "type": "uint256"
        }
      ],
      "name": "ERC20InsufficientBalance",
      "type": "error"
    },
    {
      "inputs": [
        {
          "internalType": "address",
          "name": "approver",
          "type": "address"
        }
      ],
      "name": "ERC20InvalidApprover",
      "type": "error"
    },
    {
      "inputs": [
        {
          "internalType": "address",
          "name": "receiver",
          "type": "address"
        }
      ],
      "name": "ERC20InvalidReceiver",
      "type": "error"
    },
    {
      "inputs": [
        {
          "internalType": "address",
          "name": "sender",
          "type": "address"
        }
      ],
      "name": "ERC20InvalidSender",
      "type": "error"
    },
    {
      "inputs": [
        {
          "internalType": "address",
          "name": "spender",
          "type": "address"
        }
      ],
      "name": "ERC20InvalidSpender",
      "type": "error"
    },
    {
      "inputs": [
        {
          "internalType": "uint256",
          "name": "deadline",
          "type": "uint256"
        }
      ],
      "name": "ERC2612ExpiredSignature",
      "type": "error"
    },
    {
      "inputs": [
        {
          "internalType": "address",
          "name": "signer",
          "type": "address"
        },
        {
          "internalType": "address",
          "name": "owner",
          "type": "address"
        }
      ],
      "name": "ERC2612InvalidSigner",
      "type": "error"
    },
    {
      "inputs": [
        {
          "internalType": "uint256",
          "name": "timepoint",
          "type": "uint256"
        },
        {
          "internalType": "uint48",
          "name": "clock",
          "type": "uint48"
        }
      ],
      "name": "ERC5805FutureLookup",
      "type": "error"
    },
    {
      "inputs": [],
      "name": "ERC6372InconsistentClock",
      "type": "error"
    },
    {
      "inputs": [
        {
          "internalType": "address",
          "name": "account",
          "type": "address"
        },
        {
          "internalType": "uint256",
          "name": "currentNonce",
          "type": "uint256"
        }
      ],
      "name": "InvalidAccountNonce",
      "type": "error"
    },
    {
      "inputs": [],
      "name": "InvalidShortString",
      "type": "error"
    },
    {
      "inputs": [
        {
          "internalType": "address",
          "name": "owner",
          "type": "address"
        }
      ],
      "name": "OwnableInvalidOwner",
      "type": "error"
    },
    {
      "inputs": [
        {
          "internalType": "address",
          "name": "account",
          "type": "address"
        }
      ],
      "name": "OwnableUnauthorizedAccount",
      "type": "error"
    },
    {
      "inputs": [
        {
          "internalType": "uint8",
          "name": "bits",
          "type": "uint8"
        },
        {
          "internalType": "uint256",
          "name": "value",
          "type": "uint256"
        }
      ],
      "name": "SafeCastOverflowedUintDowncast",
      "type": "error"
    },
    {
      "inputs": [
        {
          "internalType": "string",
          "name": "str",
          "type": "string"
        }
      ],
      "name": "StringTooLong",
      "type": "error"
    },
    {
      "inputs": [
        {
          "internalType": "uint256",
          "name": "expiry",
          "type": "uint256"
        }
      ],
      "name": "VotesExpiredSignature",
      "type": "error"
    },
    {
      "anonymous": false,
      "inputs": [
        {
          "indexed": true,
          "internalType": "address",
          "name": "owner",
          "type": "address"
        },
        {
          "indexed": true,
          "internalType": "address",
          "name": "spender",
          "type": "address"
        },
        {
          "indexed": false,
          "internalType": "uint256",
          "name": "value",
          "type": "uint256"
        }
      ],
      "name": "Approval",
      "type": "event"
    },
    {
      "anonymous": false,
      "inputs": [
        {
          "indexed": true,
          "internalType": "address",
          "name": "delegator",
          "type": "address"
        },
        {
          "indexed": true,
          "internalType": "address",
          "name": "fromDelegate",
          "type": "address"
        },
        {
          "indexed": true,
          "internalType": "address",
          "name": "toDelegate",
          "type": "address"
        }
      ],
      "name": "DelegateChanged",
      "type": "event"
    },
    {
      "anonymous": false,
      "inputs": [
        {
          "indexed": true,
          "internalType": "address",
          "name": "delegate",
          "type": "address"
        },
        {
          "indexed": false,
          "internalType": "uint256",
          "name": "previousVotes",
          "type": "uint256"
        },
        {
          "indexed": false,
          "internalType": "uint256",
          "name": "newVotes",
          "type": "uint256"
        }
      ],
      "name": "DelegateVotesChanged",
      "type": "event"
    },
    {
      "anonymous": false,
      "inputs": [],
      "name": "EIP712DomainChanged",
      "type": "event"
    },
    {
      "anonymous": false,
      "inputs": [
        {
          "indexed": true,
          "internalType": "address",
          "name": "previousOwner",
          "type": "address"
        },
        {
          "indexed": true,
          "internalType": "address",
          "name": "newOwner",
          "type": "address"
        }
      ],
      "name": "OwnershipTransferred",
      "type": "event"
    },
    {
      "anonymous": false,
      "inputs": [
        {
          "indexed": true,
          "internalType": "address",
          "name": "from",
          "type": "address"
        },
        {
          "indexed": true,
          "internalType": "address",
          "name": "to",
          "type": "address"
        },
        {
          "indexed": false,
          "internalType": "uint256",
          "name": "value",
          "type": "uint256"
        }
      ],
      "name": "Transfer",
      "type": "event"
    },
    {
      "inputs": [],
      "name": "CLOCK_MODE",
      "outputs": [
        {
          "internalType": "string",
          "name": "",
          "type": "string"
        }
      ],
      "stateMutability": "view",
      "type": "function"
    },
    {
      "inputs": [],
      "name": "DOMAIN_SEPARATOR",
      "outputs": [
        {
          "internalType": "bytes32",
          "name": "",
          "type": "bytes32"
        }
      ],
      "stateMutability": "view",
      "type": "function"
    },
    {
      "inputs": [
        {
          "internalType": "address",
          "name": "owner",
          "type": "address"
        },
        {
          "internalType": "address",
          "name": "spender",
          "type": "address"
        }
      ],
      "name": "allowance",
      "outputs": [
        {
          "internalType": "uint256",
          "name": "",
          "type": "uint256"
        }
      ],
      "stateMutability": "view",
      "type": "function"
    },
    {
      "inputs": [
        {
          "internalType": "address",
          "name": "spender",
          "type": "address"
        },
        {
          "internalType": "uint256",
          "name": "value",
          "type": "uint256"
        }
      ],
      "name": "approve",
      "outputs": [
        {
          "internalType": "bool",
          "name": "",
          "type": "bool"
        }
      ],
      "stateMutability": "nonpayable",
      "type": "function"
    },
    {
      "inputs": [
        {
          "internalType": "address",
          "name": "account",
          "type": "address"
        }
      ],
      "name": "balanceOf",
      "outputs": [
        {
          "internalType": "uint256",
          "name": "",
          "type": "uint256"
        }
      ],
      "stateMutability": "view",
      "type": "function"
    },
    {
      "inputs": [
        {
          "internalType": "address",
          "name": "account",
          "type": "address"
        },
        {
          "internalType": "uint32",
          "name": "pos",
          "type": "uint32"
        }
      ],
      "name": "checkpoints",
      "outputs": [
        {
          "components": [
            {
              "internalType": "uint48",
              "name": "_key",
              "type": "uint48"
            },
            {
              "internalType": "uint208",
              "name": "_value",
              "type": "uint208"
            }
          ],
          "internalType": "struct Checkpoints.Checkpoint208",
          "name": "",
          "type": "tuple"
        }
      ],
      "stateMutability": "view",
      "type": "function"
    },
    {
      "inputs": [],
      "name": "clock",
      "outputs": [
        {
          "internalType": "uint48",
          "name": "",
          "type": "uint48"
        }
      ],
      "stateMutability": "view",
      "type": "function"
    },
    {
      "inputs": [],
      "name": "decimals",
      "outputs": [
        {
          "internalType": "uint8",
          "name": "",
          "type": "uint8"
        }
      ],
      "stateMutability": "view",
      "type": "function"
    },
    {
      "inputs": [
        {
          "internalType": "address",
          "name": "delegatee",
          "type": "address"
        }
      ],
      "name": "delegate",
      "outputs": [],
      "stateMutability": "nonpayable",
      "type": "function"
    },
    {
      "inputs": [
        {
          "internalType": "address",
          "name": "delegatee",
          "type": "address"
        },
        {
          "internalType": "uint256",
          "name": "nonce",
          "type": "uint256"
        },
        {
          "internalType": "uint256",
          "name": "expiry",
          "type": "uint256"
        },
        {
          "internalType": "uint8",
          "name": "v",
          "type": "uint8"
        },
        {
          "internalType": "bytes32",
          "name": "r",
          "type": "bytes32"
        },
        {
          "internalType": "bytes32",
          "name": "s",
          "type": "bytes32"
        }
      ],
      "name": "delegateBySig",
      "outputs": [],
      "stateMutability": "nonpayable",
      "type": "function"
    },
    {
      "inputs": [
        {
          "internalType": "address",
          "name": "account",
          "type": "address"
        }
      ],
      "name": "delegates",
      "outputs": [
        {
          "internalType": "address",
          "name": "",
          "type": "address"
        }
      ],
      "stateMutability": "view",
      "type": "function"
    },
    {
      "inputs": [],
      "name": "eip712Domain",
      "outputs": [
        {
          "internalType": "bytes1",
          "name": "fields",
          "type": "bytes1"
        },
        {
          "internalType": "string",
          "name": "name",
          "type": "string"
        },
        {
          "internalType": "string",
          "name": "version",
          "type": "string"
        },
        {
          "internalType": "uint256",
          "name": "chainId",
          "type": "uint256"
        },
        {
          "internalType": "address",
          "name": "verifyingContract",
          "type": "address"
        },
        {
          "internalType": "bytes32",
          "name": "salt",
          "type": "bytes32"
        },
        {
          "internalType": "uint256[]",
          "name": "extensions",
          "type": "uint256[]"
        }
      ],
      "stateMutability": "view",
      "type": "function"
    },
    {
      "inputs": [
        {
          "internalType": "uint256",
          "name": "timepoint",
          "type": "uint256"
        }
      ],
      "name": "getPastTotalSupply",
      "outputs": [
        {
          "internalType": "uint256",
          "name": "",
          "type": "uint256"
        }
      ],
      "stateMutability": "view",
      "type": "function"
    },
    {
      "inputs": [
        {
          "internalType": "address",
          "name": "account",
          "type": "address"
        },
        {
          "internalType": "uint256",
          "name": "timepoint",
          "type": "uint256"
        }
      ],
      "name": "getPastVotes",
      "outputs": [
        {
          "internalType": "uint256",
          "name": "",
          "type": "uint256"
        }
      ],
      "stateMutability": "view",
      "type": "function"
    },
    {
      "inputs": [
        {
          "internalType": "address",
          "name": "account",
          "type": "address"
        }
      ],
      "name": "getVotes",
      "outputs": [
        {
          "internalType": "uint256",
          "name": "",
          "type": "uint256"
        }
      ],
      "stateMutability": "view",
      "type": "function"
    },
    {
      "inputs": [],
      "name": "name",
      "outputs": [
        {
          "internalType": "string",
          "name": "",
          "type": "string"
        }
      ],
      "stateMutability": "view",
      "type": "function"
    },
    {
      "inputs": [
        {
          "internalType": "address",
          "name": "owner",
          "type": "address"
        }
      ],
      "name": "nonces",
      "outputs": [
        {
          "internalType": "uint256",
          "name": "",
          "type": "uint256"
        }
      ],
      "stateMutability": "view",
      "type": "function"
    },
    {
      "inputs": [
        {
          "internalType": "address",
          "name": "account",
          "type": "address"
        }
      ],
      "name": "numCheckpoints",
      "outputs": [
        {
          "internalType": "uint32",
          "name": "",
          "type": "uint32"
        }
      ],
      "stateMutability": "view",
      "type": "function"
    },
    {
      "inputs": [],
      "name": "owner",
      "outputs": [
        {
          "internalType": "address",
          "name": "",
          "type": "address"
        }
      ],
      "stateMutability": "view",
      "type": "function"
    },
    {
      "inputs": [
        {
          "internalType": "address",
          "name": "owner",
          "type": "address"
        },
        {
          "internalType": "address",
          "name": "spender",
          "type": "address"
        },
        {
          "internalType": "uint256",
          "name": "value",
          "type": "uint256"
        },
        {
          "internalType": "uint256",
          "name": "deadline",
          "type": "uint256"
        },
        {
          "internalType": "uint8",
          "name": "v",
          "type": "uint8"
        },
        {
          "internalType": "bytes32",
          "name": "r",
          "type": "bytes32"
        },
        {
          "internalType": "bytes32",
          "name": "s",
          "type": "bytes32"
        }
      ],
      "name": "permit",
      "outputs": [],
      "stateMutability": "nonpayable",
      "type": "function"
    },
    {
      "inputs": [],
      "name": "renounceOwnership",
      "outputs": [],
      "stateMutability": "nonpayable",
      "type": "function"
    },
    {
      "inputs": [
        {
          "internalType": "address",
          "name": "_vault",
          "type": "address"
        }
      ],
      "name": "setVault",
      "outputs": [],
      "stateMutability": "nonpayable",
      "type": "function"
    },
    {
      "inputs": [],
      "name": "symbol",
      "outputs": [
        {
          "internalType": "string",
          "name": "",
          "type": "string"
        }
      ],
      "stateMutability": "view",
      "type": "function"
    },
    {
      "inputs": [],
      "name": "totalSupply",
      "outputs": [
        {
          "internalType": "uint256",
          "name": "",
          "type": "uint256"
        }
      ],
      "stateMutability": "view",
      "type": "function"
    },
    {
      "inputs": [
        {
          "internalType": "address",
          "name": "to",
          "type": "address"
        },
        {
          "internalType": "uint256",
          "name": "value",
          "type": "uint256"
        }
      ],
      "name": "transfer",
      "outputs": [
        {
          "internalType": "bool",
          "name": "",
          "type": "bool"
        }
      ],
      "stateMutability": "nonpayable",
      "type": "function"
    },
    {
      "inputs": [
        {
          "internalType": "address",
          "name": "from",
          "type": "address"
        },
        {
          "internalType": "address",
          "name": "to",
          "type": "address"
        },
        {
          "internalType": "uint256",
          "name": "value",
          "type": "uint256"
        }
      ],
      "name": "transferFrom",
      "outputs": [
        {
          "internalType": "bool",
          "name": "",
          "type": "bool"
        }
      ],
      "stateMutability": "nonpayable",
      "type": "function"
    },
    {
      "inputs": [
        {
          "internalType": "address",
          "name": "newOwner",
          "type": "address"
        }
      ],
      "name": "transferOwnership",
      "outputs": [],
      "stateMutability": "nonpayable",
      "type": "function"
    },
    {
      "inputs": [],
      "name": "vault",
      "outputs": [
        {
          "internalType": "address",
          "name": "",
          "type": "address"
        }
      ],
      "stateMutability": "view",
      "type": "function"
    }
  ],
  "bytecode": "0x610160604052348015610010575f80fd5b50336040518060400160405280601381526020017223b7bb32b93732b22b30bab63a102a37b5b2b760691b81525080604051806040016040528060018152602001603160f81b8152506040518060400160405280601381526020017223b7bb32b93732b22b30bab63a102a37b5b2b760691b81525060405180604001604052806005815260200164159055531560da1b81525081600390816100b29190610309565b5060046100bf8282610309565b506100cf915083905060056101b1565b610120526100de8160066101b1565b61014052815160208084019190912060e052815190820120610100524660a05261016a60e05161010051604080517f8b73c3c69bb8fe3d512ecc4cf759cc79239f7b179b0ffacaa9a75d522b39400f60208201529081019290925260608201524660808201523060a08201525f9060c00160405160208183030381529060405280519060200120905090565b60805250503060c052506001600160a01b0381166101a257604051631e4fbdf760e01b81525f60048201526024015b60405180910390fd5b6101ab816101e3565b5061041b565b5f6020835110156101cc576101c583610234565b90506101dd565b816101d78482610309565b5060ff90505b92915050565b600b80546001600160a01b038381166001600160a01b0319831681179093556040519116919082907f8be0079c531659141344cd1fd0a4f28419497f9722a3daafe3b4186f6b6457e0905f90a35050565b5f80829050601f8151111561025e578260405163305a27a960e01b815260040161019991906103c3565b8051610269826103f8565b179392505050565b634e487b7160e01b5f52604160045260245ffd5b600181811c9082168061029957607f821691505b6020821081036102b757634e487b7160e01b5f52602260045260245ffd5b50919050565b601f82111561030457805f5260205f20601f840160051c810160208510156102e25750805b601f840160051c820191505b81811015610301575f81556001016102ee565b50505b505050565b81516001600160401b0381111561032257610322610271565b610336816103308454610285565b846102bd565b6020601f821160018114610368575f83156103515750848201515b5f19600385901b1c1916600184901b178455610301565b5f84815260208120601f198516915b828110156103975787850151825560209485019460019092019101610377565b50848210156103b457868401515f19600387901b60f8161c191681555b50505050600190811b01905550565b602081525f82518060208401528060208501604085015e5f604082850101526040601f19601f83011684010191505092915050565b805160208083015191908110156102b7575f1960209190910360031b1b16919050565b60805160a05160c05160e051610100516101205161014051611e5061046c5f395f610de801525f610dbb01525f610b2f01525f610b0701525f610a6201525f610a8c01525f610ab60152611e505ff3fe608060405234801561000f575f80fd5b50600436106101bb575f3560e01c80637ecebe00116100f3578063a9059cbb11610093578063dd62ed3e1161006e578063dd62ed3e146103df578063f1127ed814610417578063f2fde38b14610456578063fbfa77cf14610469575f80fd5b8063a9059cbb146103a6578063c3cda520146103b9578063d505accf146103cc575f80fd5b80638e539e8c116100ce5780638e539e8c1461035957806391ddadf41461036c57806395d89b411461038b5780639ab24eb014610393575f80fd5b80637ecebe001461031a57806384b0196e1461032d5780638da5cb5b14610348575f80fd5b80634bf5d7e91161015e5780636817031b116101395780636817031b146102af5780636fcfff45146102c257806370a08231146102ea578063715018a614610312575f80fd5b80634bf5d7e91461024f578063587cde1e146102575780635c19a95c1461029a575f80fd5b806323b872dd1161019957806323b872dd14610212578063313ce567146102255780633644e515146102345780633a46b1a81461023c575f80fd5b806306fdde03146101bf578063095ea7b3146101dd57806318160ddd14610200575b5f80fd5b6101c761047c565b6040516101d49190611aa1565b60405180910390f35b6101f06101eb366004611ace565b61050c565b60405190151581526020016101d4565b6002545b6040519081526020016101d4565b6101f0610220366004611af6565b610525565b604051601281526020016101d4565b610204610548565b61020461024a366004611ace565b610556565b6101c7610590565b610282610265366004611b30565b6001600160a01b039081165f908152600860205260409020541690565b6040516001600160a01b0390911681526020016101d4565b6102ad6102a8366004611b30565b610608565b005b6102ad6102bd366004611b30565b610617565b6102d56102d0366004611b30565b610641565b60405163ffffffff90911681526020016101d4565b6102046102f8366004611b30565b6001600160a01b03165f9081526020819052604090205490565b6102ad61064b565b610204610328366004611b30565b61065e565b610335610668565b6040516101d49796959493929190611b49565b600b546001600160a01b0316610282565b610204610367366004611bdf565b6106aa565b6103746106ce565b60405165ffffffffffff90911681526020016101d4565b6101c76106d7565b6102046103a1366004611b30565b6106e6565b6101f06103b4366004611ace565b610706565b6102ad6103c7366004611c06565b610713565b6102ad6103da366004611c5a565b6107d4565b6102046103ed366004611cc0565b6001600160a01b039182165f90815260016020908152604080832093909416825291909152205490565b61042a610425366004611cf1565b61090a565b60408051825165ffffffffffff1681526020928301516001600160d01b031692810192909252016101d4565b6102ad610464366004611b30565b61092e565b600c54610282906001600160a01b031681565b60606003805461048b90611d2e565b80601f01602080910402602001604051908101604052809291908181526020018280546104b790611d2e565b80156105025780601f106104d957610100808354040283529160200191610502565b820191905f5260205f20905b8154815290600101906020018083116104e557829003601f168201915b5050505050905090565b5f3361051981858561096b565b60019150505b92915050565b5f3361053285828561097d565b61053d8585856109f9565b506001949350505050565b5f610551610a56565b905090565b5f61058061056383610b7f565b6001600160a01b0385165f90815260096020526040902090610bcd565b6001600160d01b03169392505050565b606061059a610c7d565b65ffffffffffff166105aa6106ce565b65ffffffffffff16146105d0576040516301bfc1c560e61b815260040160405180910390fd5b5060408051808201909152601d81527f6d6f64653d626c6f636b6e756d6265722666726f6d3d64656661756c74000000602082015290565b336106138183610c87565b5050565b61061f610cf8565b600c80546001600160a01b0319166001600160a01b0392909216919091179055565b5f61051f82610d25565b610653610cf8565b61065c5f610d46565b565b5f61051f82610d97565b5f6060805f805f6060610679610db4565b610681610de1565b604080515f80825260208201909252600f60f81b9b939a50919850469750309650945092509050565b5f6106bf6106b783610b7f565b600a90610bcd565b6001600160d01b031692915050565b5f610551610c7d565b60606004805461048b90611d2e565b6001600160a01b0381165f9081526009602052604081206106bf90610e0e565b5f336105198185856109f9565b8342111561073c57604051632341d78760e11b8152600481018590526024015b60405180910390fd5b604080517fe48329057bfd03d55e49b547132e39cffd9c1820ad7b9d4c5307691425d15adf60208201526001600160a01b0388169181019190915260608101869052608081018590525f906107b5906107ad9060a00160405160208183030381529060405280519060200120610e45565b858585610e71565b90506107c18187610e9d565b6107cb8188610c87565b50505050505050565b834211156107f85760405163313c898160e11b815260048101859052602401610733565b5f7f6e71edae12b1b97f4d1f60370fef10105fa2faae0126114a169c64845d6126c98888886108438c6001600160a01b03165f90815260076020526040902080546001810190915590565b6040805160208101969096526001600160a01b0394851690860152929091166060840152608083015260a082015260c0810186905260e0016040516020818303038152906040528051906020012090505f61089d82610e45565b90505f6108ac82878787610e71565b9050896001600160a01b0316816001600160a01b0316146108f3576040516325c0072360e11b81526001600160a01b0380831660048301528b166024820152604401610733565b6108fe8a8a8a61096b565b50505050505050505050565b604080518082019091525f80825260208201526109278383610eef565b9392505050565b610936610cf8565b6001600160a01b03811661095f57604051631e4fbdf760e01b81525f6004820152602401610733565b61096881610d46565b50565b6109788383836001610f23565b505050565b6001600160a01b038381165f908152600160209081526040808320938616835292905220545f198110156109f357818110156109e557604051637dc7a0d960e11b81526001600160a01b03841660048201526024810182905260448101839052606401610733565b6109f384848484035f610f23565b50505050565b6001600160a01b038316610a2257604051634b637e8f60e11b81525f6004820152602401610733565b6001600160a01b038216610a4b5760405163ec442f0560e01b81525f6004820152602401610733565b610978838383610ff5565b5f306001600160a01b037f000000000000000000000000000000000000000000000000000000000000000016148015610aae57507f000000000000000000000000000000000000000000000000000000000000000046145b15610ad857507f000000000000000000000000000000000000000000000000000000000000000090565b610551604080517f8b73c3c69bb8fe3d512ecc4cf759cc79239f7b179b0ffacaa9a75d522b39400f60208201527f0000000000000000000000000000000000000000000000000000000000000000918101919091527f000000000000000000000000000000000000000000000000000000000000000060608201524660808201523060a08201525f9060c00160405160208183030381529060405280519060200120905090565b5f80610b896106ce565b90508065ffffffffffff168310610bc457604051637669fc0f60e11b81526004810184905265ffffffffffff82166024820152604401610733565b61092783611000565b81545f9081816005811115610c29575f610be684611036565b610bf09085611d7a565b5f8881526020902090915081015465ffffffffffff9081169087161015610c1957809150610c27565b610c24816001611d8d565b92505b505b5f610c368787858561118e565b90508015610c7057610c5a87610c4d600184611d7a565b5f91825260209091200190565b54600160301b90046001600160d01b0316610c72565b5f5b979650505050505050565b5f61055143611000565b6001600160a01b038281165f8181526008602052604080822080548686166001600160a01b0319821681179092559151919094169392849290917f3134e8a2e6d97e929a7e54011ea5485d7d196dd5f0ba4d4ef95803e8e3fc257f9190a46109788183610cf3866111e4565b611201565b600b546001600160a01b0316331461065c5760405163118cdaa760e01b8152336004820152602401610733565b6001600160a01b0381165f9081526009602052604081205461051f9061136a565b600b80546001600160a01b038381166001600160a01b0319831681179093556040519116919082907f8be0079c531659141344cd1fd0a4f28419497f9722a3daafe3b4186f6b6457e0905f90a35050565b6001600160a01b0381165f9081526007602052604081205461051f565b60606105517f0000000000000000000000000000000000000000000000000000000000000000600561139a565b60606105517f0000000000000000000000000000000000000000000000000000000000000000600661139a565b80545f908015610e3d57610e2783610c4d600184611d7a565b54600160301b90046001600160d01b0316610927565b5f9392505050565b5f61051f610e51610a56565b8360405161190160f01b8152600281019290925260228201526042902090565b5f805f80610e8188888888611443565b925092509250610e91828261150b565b50909695505050505050565b6001600160a01b0382165f908152600760205260409020805460018101909155818114610978576040516301d4b62360e61b81526001600160a01b038416600482015260248101829052604401610733565b604080518082019091525f80825260208201526001600160a01b0383165f90815260096020526040902061092790836115c3565b6001600160a01b038416610f4c5760405163e602df0560e01b81525f6004820152602401610733565b6001600160a01b038316610f7557604051634a1406b160e11b81525f6004820152602401610733565b6001600160a01b038085165f90815260016020908152604080832093871683529290522082905580156109f357826001600160a01b0316846001600160a01b03167f8c5be1e5ebec7d5bd14f71427d1e84f3dd0314c0f7b2291e5b200ac8c7c3b92584604051610fe791815260200190565b60405180910390a350505050565b610978838383611630565b5f65ffffffffffff821115611032576040516306dfcc6560e41b81526030600482015260248101839052604401610733565b5090565b5f60018211611043575090565b816001600160801b821061105c5760809190911c9060401b5b6801000000000000000082106110775760409190911c9060201b5b640100000000821061108e5760209190911c9060101b5b6201000082106110a35760109190911c9060081b5b61010082106110b75760089190911c9060041b5b601082106110ca5760049190911c9060021b5b600482106110d65760011b5b600302600190811c908185816110ee576110ee611da0565b048201901c9050600181858161110657611106611da0565b048201901c9050600181858161111e5761111e611da0565b048201901c9050600181858161113657611136611da0565b048201901c9050600181858161114e5761114e611da0565b048201901c9050600181858161116657611166611da0565b048201901c905061118581858161117f5761117f611da0565b04821190565b90039392505050565b5f5b818310156111dc575f85815260209020838316600285851804019081015465ffffffffffff868116911611156111c8578092506111d6565b6111d3816001611d8d565b93505b50611190565b509392505050565b6001600160a01b0381165f9081526020819052604081205461051f565b816001600160a01b0316836001600160a01b03161415801561122257505f81115b15610978576001600160a01b038316156112c9576001600160a01b0383165f90815260096020526040812081906112649061169661125f866116a1565b6116d4565b6001600160d01b031691506001600160d01b03169150846001600160a01b03167fdec2bacdd2f05b59de34da9b523dff8be42e5e38e818c82fdb0bae774387a72483836040516112be929190918252602082015260400190565b60405180910390a250505b6001600160a01b03821615610978576001600160a01b0382165f90815260096020526040812081906113019061170c61125f866116a1565b6001600160d01b031691506001600160d01b03169150836001600160a01b03167fdec2bacdd2f05b59de34da9b523dff8be42e5e38e818c82fdb0bae774387a724838360405161135b929190918252602082015260400190565b60405180910390a25050505050565b5f63ffffffff821115611032576040516306dfcc6560e41b81526020600482015260248101839052604401610733565b606060ff83146113b4576113ad83611717565b905061051f565b8180546113c090611d2e565b80601f01602080910402602001604051908101604052809291908181526020018280546113ec90611d2e565b80156114375780601f1061140e57610100808354040283529160200191611437565b820191905f5260205f20905b81548152906001019060200180831161141a57829003601f168201915b5050505050905061051f565b5f80807f7fffffffffffffffffffffffffffffff5d576e7357a4501ddfe92f46681b20a084111561147c57505f91506003905082611501565b604080515f808252602082018084528a905260ff891692820192909252606081018790526080810186905260019060a0016020604051602081039080840390855afa1580156114cd573d5f803e3d5ffd5b5050604051601f1901519150506001600160a01b0381166114f857505f925060019150829050611501565b92505f91508190505b9450945094915050565b5f82600381111561151e5761151e611db4565b03611527575050565b600182600381111561153b5761153b611db4565b036115595760405163f645eedf60e01b815260040160405180910390fd5b600282600381111561156d5761156d611db4565b0361158e5760405163fce698f760e01b815260048101829052602401610733565b60038260038111156115a2576115a2611db4565b03610613576040516335e2f38360e21b815260048101829052602401610733565b604080518082019091525f8082526020820152825f018263ffffffff16815481106115f0576115f0611dc8565b5f9182526020918290206040805180820190915291015465ffffffffffff81168252600160301b90046001600160d01b0316918101919091529392505050565b61163b838383611754565b6001600160a01b03831661168b575f61165360025490565b90506001600160d01b038082111561168857604051630e58ae9360e11b81526004810183905260248101829052604401610733565b50505b61097883838361187a565b5f6109278284611ddc565b5f6001600160d01b03821115611032576040516306dfcc6560e41b815260d0600482015260248101839052604401610733565b5f806116ff6116e16106ce565b6116f76116ed88610e0e565b868863ffffffff16565b8791906118ef565b915091505b935093915050565b5f6109278284611dfb565b60605f611723836118fc565b6040805160208082528183019092529192505f91906020820181803683375050509182525060208101929092525090565b6001600160a01b03831661177e578060025f8282546117739190611d8d565b909155506117ee9050565b6001600160a01b0383165f90815260208190526040902054818110156117d05760405163391434e360e21b81526001600160a01b03851660048201526024810182905260448101839052606401610733565b6001600160a01b0384165f9081526020819052604090209082900390555b6001600160a01b03821661180a57600280548290039055611828565b6001600160a01b0382165f9081526020819052604090208054820190555b816001600160a01b0316836001600160a01b03167fddf252ad1be2c89b69c2b068fc378daa952ba7f163c4a11628f55a4df523b3ef8360405161186d91815260200190565b60405180910390a3505050565b6001600160a01b03831661189c57611899600a61170c61125f846116a1565b50505b6001600160a01b0382166118be576118bb600a61169661125f846116a1565b50505b6001600160a01b038381165f9081526008602052604080822054858416835291205461097892918216911683611201565b5f806116ff858585611923565b5f60ff8216601f81111561051f57604051632cd44ac360e21b815260040160405180910390fd5b82545f9081908015611a19575f61193f87610c4d600185611d7a565b805490915065ffffffffffff80821691600160301b90046001600160d01b031690881682111561198257604051632520601d60e01b815260040160405180910390fd5b8765ffffffffffff168265ffffffffffff16036119bb57825465ffffffffffff16600160301b6001600160d01b03891602178355611a0b565b6040805180820190915265ffffffffffff808a1682526001600160d01b03808a1660208085019182528d54600181018f555f8f81529190912094519151909216600160301b029216919091179101555b945085935061170492505050565b50506040805180820190915265ffffffffffff80851682526001600160d01b0380851660208085019182528854600181018a555f8a815291822095519251909316600160301b029190931617920191909155905081611704565b5f81518084528060208401602086015e5f602082860101526020601f19601f83011685010191505092915050565b602081525f6109276020830184611a73565b80356001600160a01b0381168114611ac9575f80fd5b919050565b5f8060408385031215611adf575f80fd5b611ae883611ab3565b946020939093013593505050565b5f805f60608486031215611b08575f80fd5b611b1184611ab3565b9250611b1f60208501611ab3565b929592945050506040919091013590565b5f60208284031215611b40575f80fd5b61092782611ab3565b60ff60f81b8816815260e060208201525f611b6760e0830189611a73565b8281036040840152611b798189611a73565b606084018890526001600160a01b038716608085015260a0840186905283810360c0850152845180825260208087019350909101905f5b81811015611bce578351835260209384019390920191600101611bb0565b50909b9a5050505050505050505050565b5f60208284031215611bef575f80fd5b5035919050565b803560ff81168114611ac9575f80fd5b5f805f805f8060c08789031215611c1b575f80fd5b611c2487611ab3565b95506020870135945060408701359350611c4060608801611bf6565b9598949750929560808101359460a0909101359350915050565b5f805f805f805f60e0888a031215611c70575f80fd5b611c7988611ab3565b9650611c8760208901611ab3565b95506040880135945060608801359350611ca360808901611bf6565b9699959850939692959460a0840135945060c09093013592915050565b5f8060408385031215611cd1575f80fd5b611cda83611ab3565b9150611ce860208401611ab3565b90509250929050565b5f8060408385031215611d02575f80fd5b611d0b83611ab3565b9150602083013563ffffffff81168114611d23575f80fd5b809150509250929050565b600181811c90821680611d4257607f821691505b602082108103611d6057634e487b7160e01b5f52602260045260245ffd5b50919050565b634e487b7160e01b5f52601160045260245ffd5b8181038181111561051f5761051f611d66565b8082018082111561051f5761051f611d66565b634e487b7160e01b5f52601260045260245ffd5b634e487b7160e01b5f52602160045260245ffd5b634e487b7160e01b5f52603260045260245ffd5b6001600160d01b03828116828216039081111561051f5761051f611d66565b6001600160d01b03818116838216019081111561051f5761051f611d6656fea264697066735822122022568cc483e6bfdfe860d4b669da1e6d9f223a0734452fccb2dabe3f8f16d4f664736f6c634300081a0033",
  "linkReferences": {},
  "deployedLinkReferences": {}
}