{
  "_format": "hh-sol-artifact-1",
  "contractName": "MockStrategyA",
  "sourceName": "contracts/MockStrategy.sol",
  "abi": [
    {
      "inputs": [],
      "stateMutability": "nonpayable",
      "type": "constructor"
    },
    {
      "inputs": [
        {
          "internalType": "address",
          "name": "spender",
          "type": "address"
        },
        {
          "internalType": "uint256",
          "name": "allowance",
          "type": "uint256"
        },
        {
          "internalType": "uint256",
          "name": "needed",
          "type": "uint256"
        }
      ],
      "name": "ERC20InsufficientAllowance",
      "type": "error"
    },
    {
      "inputs": [
        {
          "internalType": "address",
          "name": "sender",
          "type": "address"
        },
        {
          "internalType": "uint256",
          "name": "balance",
          "type": "uint256"
        },
        {
          "internalType": "uint256",
          "name": "needed",
          "type": "uint256"
        }
      ],
      "name": "ERC20InsufficientBalance",
      "type": "error"
    },
    {
      "inputs": [
        {
          "internalType": "address",
          "name": "approver",
          "type": "address"
        }
      ],
      "name": "ERC20InvalidApprover",
      "type": "error"
    },
    {
      "inputs": [
        {
          "internalType": "address",
          "name": "receiver",
          "type": "address"
        }
      ],
      "name": "ERC20InvalidReceiver",
      "type": "error"
    },
    {
      "inputs": [
        {
          "internalType": "address",
          "name": "sender",
          "type": "address"
        }
      ],
      "name": "ERC20InvalidSender",
      "type": "error"
    },
    {
      "inputs": [
        {
          "internalType": "address",
          "name": "spender",
          "type": "address"
        }
      ],
      "name": "ERC20InvalidSpender",
      "type": "error"
    },
    {
      "anonymous": false,
      "inputs": [
        {
          "indexed": true,
          "internalType": "address",
          "name": "owner",
          "type": "address"
        },
        {
          "indexed": true,
          "internalType": "address",
          "name": "spender",
          "type": "address"
        },
        {
          "indexed": false,
          "internalType": "uint256",
          "name": "value",
          "type": "uint256"
        }
      ],
      "name": "Approval",
      "type": "event"
    },
    {
      "anonymous": false,
      "inputs": [
        {
          "indexed": true,
          "internalType": "address",
          "name": "from",
          "type": "address"
        },
        {
          "indexed": true,
          "internalType": "address",
          "name": "to",
          "type": "address"
        },
        {
          "indexed": false,
          "internalType": "uint256",
          "name": "value",
          "type": "uint256"
        }
      ],
      "name": "Transfer",
      "type": "event"
    },
    {
      "inputs": [
        {
          "internalType": "address",
          "name": "owner",
          "type": "address"
        },
        {
          "internalType": "address",
          "name": "spender",
          "type": "address"
        }
      ],
      "name": "allowance",
      "outputs": [
        {
          "internalType": "uint256",
          "name": "",
          "type": "uint256"
        }
      ],
      "stateMutability": "view",
      "type": "function"
    },
    {
      "inputs": [
        {
          "internalType": "address",
          "name": "spender",
          "type": "address"
        },
        {
          "internalType": "uint256",
          "name": "value",
          "type": "uint256"
        }
      ],
      "name": "approve",
      "outputs": [
        {
          "internalType": "bool",
          "name": "",
          "type": "bool"
        }
      ],
      "stateMutability": "nonpayable",
      "type": "function"
    },
    {
      "inputs": [],
      "name": "apy",
      "outputs": [
        {
          "internalType": "uint256",
          "name": "",
          "type": "uint256"
        }
      ],
      "stateMutability": "pure",
      "type": "function"
    },
    {
      "inputs": [
        {
          "internalType": "address",
          "name": "account",
          "type": "address"
        }
      ],
      "name": "balanceOf",
      "outputs": [
        {
          "internalType": "uint256",
          "name": "",
          "type": "uint256"
        }
      ],
      "stateMutability": "view",
      "type": "function"
    },
    {
      "inputs": [],
      "name": "decimals",
      "outputs": [
        {
          "internalType": "uint8",
          "name": "",
          "type": "uint8"
        }
      ],
      "stateMutability": "view",
      "type": "function"
    },
    {
      "inputs": [],
      "name": "name",
      "outputs": [
        {
          "internalType": "string",
          "name": "",
          "type": "string"
        }
      ],
      "stateMutability": "view",
      "type": "function"
    },
    {
      "inputs": [],
      "name": "symbol",
      "outputs": [
        {
          "internalType": "string",
          "name": "",
          "type": "string"
        }
      ],
      "stateMutability": "view",
      "type": "function"
    },
    {
      "inputs": [],
      "name": "totalSupply",
      "outputs": [
        {
          "internalType": "uint256",
          "name": "",
          "type": "uint256"
        }
      ],
      "stateMutability": "view",
      "type": "function"
    },
    {
      "inputs": [
        {
          "internalType": "address",
          "name": "to",
          "type": "address"
        },
        {
          "internalType": "uint256",
          "name": "value",
          "type": "uint256"
        }
      ],
      "name": "transfer",
      "outputs": [
        {
          "internalType": "bool",
          "name": "",
          "type": "bool"
        }
      ],
      "stateMutability": "nonpayable",
      "type": "function"
    },
    {
      "inputs": [
        {
          "internalType": "address",
          "name": "from",
          "type": "address"
        },
        {
          "internalType": "address",
          "name": "to",
          "type": "address"
        },
        {
          "internalType": "uint256",
          "name": "value",
          "type": "uint256"
        }
      ],
      "name": "transferFrom",
      "outputs": [
        {
          "internalType": "bool",
          "name": "",
          "type": "bool"
        }
      ],
      "stateMutability": "nonpayable",
      "type": "function"
    }
  ],
  "bytecode": "0x608060405234801561000f575f80fd5b506040518060400160405280600e81526020016d4d6f636b5374726174656779204160901b815250604051806040016040528060078152602001664d53545241544160c81b81525081600390816100669190610290565b5060046100738282610290565b5050506100903369d3c21bcecceda100000061009560201b60201c565b61036f565b6001600160a01b0382166100c35760405163ec442f0560e01b81525f60048201526024015b60405180910390fd5b6100ce5f83836100d2565b5050565b6001600160a01b0383166100fc578060025f8282546100f1919061034a565b9091555061016c9050565b6001600160a01b0383165f908152602081905260409020548181101561014e5760405163391434e360e21b81526001600160a01b038516600482015260248101829052604481018390526064016100ba565b6001600160a01b0384165f9081526020819052604090209082900390555b6001600160a01b038216610188576002805482900390556101a6565b6001600160a01b0382165f9081526020819052604090208054820190555b816001600160a01b0316836001600160a01b03167fddf252ad1be2c89b69c2b068fc378daa952ba7f163c4a11628f55a4df523b3ef836040516101eb91815260200190565b60405180910390a3505050565b634e487b7160e01b5f52604160045260245ffd5b600181811c9082168061022057607f821691505b60208210810361023e57634e487b7160e01b5f52602260045260245ffd5b50919050565b601f82111561028b57805f5260205f20601f840160051c810160208510156102695750805b601f840160051c820191505b81811015610288575f8155600101610275565b50505b505050565b81516001600160401b038111156102a9576102a96101f8565b6102bd816102b7845461020c565b84610244565b6020601f8211600181146102ef575f83156102d85750848201515b5f19600385901b1c1916600184901b178455610288565b5f84815260208120601f198516915b8281101561031e57878501518255602094850194600190920191016102fe565b508482101561033b57868401515f19600387901b60f8161c191681555b50505050600190811b01905550565b8082018082111561036957634e487b7160e01b5f52601160045260245ffd5b92915050565b61070e8061037c5f395ff3fe608060405234801561000f575f80fd5b506004361061009b575f3560e01c80633bcfc4b8116100635780633bcfc4b81461013a57806370a082311461014257806395d89b411461016a578063a9059cbb14610172578063dd62ed3e14610185575f80fd5b806306fdde031461009f578063095ea7b3146100e357806318160ddd1461010657806323b872dd14610118578063313ce5671461012b575b5f80fd5b604080518082019091526016815275506f6c6b61646f7420487562204c656e64696e67204160501b60208201525b6040516100da919061057e565b60405180910390f35b6100f66100f13660046105ce565b6101bd565b60405190151581526020016100da565b6002545b6040519081526020016100da565b6100f66101263660046105f6565b6101d6565b604051601281526020016100da565b61020861010a565b61010a610150366004610630565b6001600160a01b03165f9081526020819052604090205490565b6100cd6101f9565b6100f66101803660046105ce565b610289565b61010a610193366004610650565b6001600160a01b039182165f90815260016020908152604080832093909416825291909152205490565b5f336101ca818585610296565b60019150505b92915050565b5f336101e38582856102a8565b6101ee858585610329565b506001949350505050565b60606004805461020890610681565b80601f016020809104026020016040519081016040528092919081815260200182805461023490610681565b801561027f5780601f106102565761010080835404028352916020019161027f565b820191905f5260205f20905b81548152906001019060200180831161026257829003601f168201915b5050505050905090565b5f336101ca818585610329565b6102a38383836001610386565b505050565b6001600160a01b038381165f908152600160209081526040808320938616835292905220545f19811015610323578181101561031557604051637dc7a0d960e11b81526001600160a01b038416600482015260248101829052604481018390526064015b60405180910390fd5b61032384848484035f610386565b50505050565b6001600160a01b03831661035257604051634b637e8f60e11b81525f600482015260240161030c565b6001600160a01b03821661037b5760405163ec442f0560e01b81525f600482015260240161030c565b6102a3838383610458565b6001600160a01b0384166103af5760405163e602df0560e01b81525f600482015260240161030c565b6001600160a01b0383166103d857604051634a1406b160e11b81525f600482015260240161030c565b6001600160a01b038085165f908152600160209081526040808320938716835292905220829055801561032357826001600160a01b0316846001600160a01b03167f8c5be1e5ebec7d5bd14f71427d1e84f3dd0314c0f7b2291e5b200ac8c7c3b9258460405161044a91815260200190565b60405180910390a350505050565b6001600160a01b038316610482578060025f82825461047791906106b9565b909155506104f29050565b6001600160a01b0383165f90815260208190526040902054818110156104d45760405163391434e360e21b81526001600160a01b0385166004820152602481018290526044810183905260640161030c565b6001600160a01b0384165f9081526020819052604090209082900390555b6001600160a01b03821661050e5760028054829003905561052c565b6001600160a01b0382165f9081526020819052604090208054820190555b816001600160a01b0316836001600160a01b03167fddf252ad1be2c89b69c2b068fc378daa952ba7f163c4a11628f55a4df523b3ef8360405161057191815260200190565b60405180910390a3505050565b602081525f82518060208401528060208501604085015e5f604082850101526040601f19601f83011684010191505092915050565b80356001600160a01b03811681146105c9575f80fd5b919050565b5f80604083850312156105df575f80fd5b6105e8836105b3565b946020939093013593505050565b5f805f60608486031215610608575f80fd5b610611846105b3565b925061061f602085016105b3565b929592945050506040919091013590565b5f60208284031215610640575f80fd5b610649826105b3565b9392505050565b5f8060408385031215610661575f80fd5b61066a836105b3565b9150610678602084016105b3565b90509250929050565b600181811c9082168061069557607f821691505b6020821081036106b357634e487b7160e01b5f52602260045260245ffd5b50919050565b808201808211156101d057634e487b7160e01b5f52601160045260245ffdfea2646970667358221220bad4df03fe25e54396431e68b342fc67fc64fc838490ac44624b5cf90bca10dc64736f6c634300081a0033",
  "linkReferences": {},
  "deployedLinkReferences": {}
}